:100000000A128A11F82FF21F2A280030F600003059
:10001000F7008030F8007009F9007109FA007209E0
:10002000FB00F90A0319FA0A0319FB0A7908F60713
:100030007A0803187A0F1D281E28F7077B08031873
:100040007B0F23282428F8077608F0007708F100B2
:100050007808F200F51F51280030F6000030F70054
:100060008030F8007309F9007409FA007509FB0083
:10007000F90A0319FA0A0319FB0A7908F6077A083C
:1000800003187A0F44284528F7077B0803187B0FCD
:100090004A284B28F8077608F3007708F400780818
:1000A000F5008030F2068030F50675087202031DF7
:1000B000080074087102031D08007308700208002C
:1000C000703084000008F600840A0008F700840AF3
:1000D0000008F800840A0008F9000310780D790D73
:1000E000FA007A0883120313A5002508031D81284E
:1000F0000030F3000030F2000030F1000030F0007A
:100100000800733084000008F600840A0008F70035
:10011000840A0008F800840A0008F9000310780D2A
:10012000790DFA007A08A4002408031DA0280030E5
:10013000F3000030F2000030F1000030F000080061
:100140007030840000308004840A00308004840A07
:1001500080308004840A0030800470308400FF30D6
:100160008005840AFF308005840AFF308005840AF8
:10017000003080057330840000308004840A003031
:100180008004840A80308004840A00308004733044
:100190008400FF308005840AFF308005840AFF3028
:1001A0008005840A003080050030A3000030A200E2
:1001B0000030A1000030A0007F30A502A03024074D
:1001C000F6007608A5022030F6007608A40001307B
:1001D000F6000310A00DA10DA20DA30DF60BE9284A
:1001E000733084000008F600840A0008F700840ACF
:1001F0000008F800840A0008F90070308400000844
:10020000FA00840A0008FB00840A0008FC00840A43
:100210000008FD0079087D02031D182978087C027A
:10022000031D182977087B02031D182976087A0216
:10023000031C3D29733084000008F600840A00087E
:10024000F700840A0008F800840A0008F9007030FA
:10025000840076088002840A7708031C770F8002E6
:10026000840A7808031C780F8002840A7908031C2A
:10027000790A800203308402201470308400031055
:10028000800D840A800D840A800D840A800D840309
:10029000840384030130A402031DE728A51F6E29EF
:1002A0002508803A9F3E03185E290030F300003095
:1002B000F2000030F1000030F000080001300310BF
:1002C000A30CA20CA10CA00CFF3E031D5F29013062
:1002D000F6007608A507031989295E292030250232
:1002E000031C86290030F3000030F2000030F100DA
:1002F0000030F00008000130F6000310A00DA10D41
:10030000A20DA30DF60B7D290130A5022508031DC2
:100310007B292308F3002208F2002108F1002008BD
:10032000F000080083160313B2005C30831203133D
:10033000DF005F0883160313A30083125B08E0004D
:100340005A08DF00DA0A0319DB0A6008FF005F08B9
:1003500084000A168A1100200A128A11E10061083D
:1003600083160313B60036080319F32F253036061B
:100370000319BE29360883120313E22FA401A50135
:10038000831203135B08FF005A0884000A168A11BF
:1003900000200A128A112E3A031D222A8316031303
:1003A0002517013083120313DA070318DB0A8316BB
:1003B0000313B001B10183125B08FF005A088400E7
:1003C0000A168A1100200A128A110A168A1589262D
:1003D0000A128A11031C2A2A831603133108F1001A
:1003E0003008F0000A30F2000030F3000A168A15D7
:1003F000FF260A128A11831203135B08FF005A08B2
:1004000084000A168A1100200A128A117007DF0080
:100410000030031801307107E0005F08D03E8316FA
:100420000313B0008312031360080318013EFF3E5C
:1004300083160313B100013083120313DA07031884
:10044000DB0ADB2983160313B001B10125162A2A22
:100450002515462A831203135B08E0005A08DF00C3
:10046000DA0A0319DB0A6008FF005F0884000A1635
:100470008A1100200A128A1183160313B600003A6B
:100480000319F32F663A0319282A9D290030240501
:1004900083120313DF00073083160313250583122D
:1004A0000313E0005F0860040319752F831603131C
:1004B000251E5E2A0630B0000030B10023088400FB
:1004C00083130008B300840A0008B400840A0008FB
:1004D000B500033083120313DF005F088316031394
:1004E000A3073308F0003408F1003508F2000030AB
:1004F000F3000030F4000030F5000A128A110320E6
:100500000A128A1103189D2A831603133308F00078
:100510003408F1003508F2000A168A1561260A121D
:100520008A11700883160313B3007108B4007208AF
:10053000B5000330A4040030A50483160313AA01F8
:10054000AB013508340433040319912BB330840014
:100550008313000883120313DF00840A0008E000FD
:10056000840A0008E100840A0008E2000F3003104A
:10057000E20CE10CE00CDF0CFF3E031DB72AFF305C
:100580005F05E30000306005E4006308823E8316E7
:100590000313AA008312031364080318013EFF3EED
:1005A00083160313AB00FF30AA070318AB0AFF3012
:1005B000AB070330F0000030F1002B08F3002A08ED
:1005C000F2000A168A15FF260A128A11710883168C
:1005D0000313AB007008AA000A30F7000030F800DF
:1005E0002B08FA002A08F9000A168A115A220A1260
:1005F0008A11780883160313AB007708AA00AB1F93
:10060000072BFF30AA070318AB0AFF30AB072A03FA
:10061000FF3A0A128A151C220A128A118312031346
:10062000370883160313AC008312031338088316AC
:100630000313AD0083120313390883160313AE00AE
:10064000330883120313A70083160313340883129D
:100650000313A80083160313350883120313A9009C
:10066000831603132C0883120313AA0083160313A3
:100670002D0883120313AB00831603132E08831275
:100680000313AC000A168A1124260A128A11831257
:100690000313270883160313AC00831203132808DF
:1006A00083160313AD008312031329088316031363
:1006B000AE002C08F0002D08F1002E08F2000030EA
:1006C000F3008030F4003F30F5000A128A11032055
:1006D0000A128A110318742BFF3083160313AA071A
:1006E0000318AB0AFF30902B831603132C08F0007D
:1006F0002D08F1002E08F2000030F3002030F40045
:100700004130F5000A128A1103200A128A11031CD3
:10071000912B013083160313AA070318AB0A00308C
:10072000AB07831603133108803AFF0080307F0245
:10073000031D9C2B0D3030020318D72B8316031397
:1007400030080A128A156A200A128A1183120313CA
:100750003708C7003808C8003908C90083160313D2
:10076000330883120313CA00831603133408831259
:100770000313CB0083160313350883120313CC0035
:100780000A168A11F7260A128A11831203134708E0
:1007900083160313B300831203134808831603134D
:1007A000B40083120313490883160313B50083169C
:1007B00003132B08803AFF0080307F02031DE22BD9
:1007C0000A302A020318152C831603133508340443
:1007D000330403196E2C330883120313C0008316ED
:1007E0000313340883120313C1008316031335085F
:1007F00083120313C2000A168A11D3240A128A1123
:10080000831203134308420441044004031D6E2C69
:10081000831603132B08803AFF0080307F02031DEC
:10082000132C02302A02031C6E2C831603132C088F
:10083000F0002D08F1002E08F2007030F30089302E
:10084000F4004030F5000A128A1103200A128A11BE
:1008500003182C2CF7302D2CF83083160313AA071D
:100860000318AB0AFF30AB072A080A128A151C22AC
:100870000A128A1183120313370883160313AC007C
:1008800083120313380883160313AD008312031376
:10089000390883160313AE003308F0003408F10062
:1008A0003508F2002C08F3002D08F4002E08F5009E
:1008B0000A168A1161250A128A1173088316031316
:1008C000A9007208A8007108A7007008A6000030EF
:1008D000B3000030B4000030B500DD2C83160313E4
:1008E000330883120313C0008316031334088312E2
:1008F0000313C10083160313350883120313C200C8
:100900000A168A11D3240A128A1183120313430888
:1009100083160313A90083120313420883160313DB
:10092000A80083120313410883160313A700831240
:100930000313400883160313A6002908FB002808A8
:10094000FA002708F9002608F8000A168A156A270F
:100950000A128A11780883120313D4007908D5008B
:100960007A08D60083160313330883120313D700C3
:1009700083160313340883120313D800831603135A
:10098000350883120313D9000A168A15DE260A12C7
:100990008A1183120313540883160313B3008312BE
:1009A0000313550883160313B40083120313560868
:1009B00083160313B500AA01AB01B601B60A0A30CB
:1009C00036060319372D360883120313DF00013072
:1009D0000310DF0DFF3E031DE82C03105F0D123ED8
:1009E000840090300318013EFF000A168A1100208F
:1009F0000A128A11E0000A168A1100200A128A11CE
:100A0000E1000A168A1100200A128A11E2000A1671
:100A10008A1100200A128A11E30063088316031367
:100A20002902031D292D8312031362088316031361
:100A30002802031D292D8312031361088316031353
:100A40002702031D292D8312031360088316031345
:100A50002602031C372D013083120313DF005F08C9
:100A600083160313B6070A303606031DE32C033042
:100A7000240583120313DF000030831603132505BA
:100A800083120313E0005F0860040319582D2D3012
:100A9000DF008316031332088400831203135F08F8
:100AA000831380000130DF005F0883160313B20751
:100AB000FF308312DF005F0883160313B607360A80
:100AC0000319E22D360883120313DF0001300310EF
:100AD000DF0DFF3E031D672D03105F0D123E8400E6
:100AE00090300318013EFF000A168A1100200A12F6
:100AF0008A11F0000A168A1100200A128A11F100E8
:100B00000A168A1100200A128A11F2000A168A11A6
:100B100000200A128A11F300831603132908F70034
:100B20002808F6002708F5002608F4000A168A119E
:100B3000B5220A128A11730883160313AF007208D4
:100B4000AE007108AD007008AC000030F30000305A
:100B5000F2000030F1000A30F0002F08F7002E08F4
:100B6000F6002D08F5002C08F4000A168A11BB21A6
:100B70000A128A11730883160313AF007208AE00BD
:100B80007108AD007008AC002C08303E83120313CE
:100B9000482D303083120313DF008316031332080D
:100BA0008400831203135F08831380000130DF0089
:100BB0005F0883160313B207FF30AA070318AB0AB6
:100BC000FF30AB072B08803AFF0080307F02031D07
:100BD000EB2D01302A020318C92D831603133108A7
:100BE000803AFF0080307F02031DF82D093030026B
:100BF000031CFC2D0830FF2D8316031330088312CD
:100C00000313DF005F0883160313B6003608831250
:100C10000313DF00E001DF1BE0035F08831603130B
:100C2000B00283120313600883160313031CB1037D
:100C3000B102360803192F2E2E3083120313DF0062
:100C40008316031332088400831203135F0883138F
:100C500080000130DF005F0883160313B2073608F7
:100C60000A128A151C220A128A11831203133708EA
:100C700083160313A000831203133808831603138B
:100C8000A10083120313390883160313A20020085E
:100C900083120313AA00831603132108831203137C
:100CA000AB0083160313220883120313AC008316D0
:100CB0000313330883120313A700831603133408A6
:100CC00083120313A800831603133508831203133A
:100CD000A9000A168A1124260A128A118312031304
:100CE0002708C0002808C1002908C2000A168A1176
:100CF000D3240A128A1183120313430883160313A1
:100D0000A90083120313420883160313A800831259
:100D10000313410883160313A7008312031340082B
:100D200083160313A600FF3083120313DF005F084E
:100D300083160313B607360A0319702F3608831279
:100D40000313DF0001300310DF0DFF3E031DA32E50
:100D500003105F0D123E840090300318013EFF0027
:100D60000A168A1100200A128A11F0000A168A1146
:100D700000200A128A11F1000A168A1100200A12B4
:100D80008A11F2000A168A1100200A128A11F30051
:100D9000831603132908F7002808F6002708F50032
:100DA0002608F4000A168A11B5220A128A1173085D
:100DB00083160313AF007208AE007108AD0070080F
:100DC000AC000030F3000030F2000030F1000A30D7
:100DD000F0002F08F7002E08F6002D08F5002C086B
:100DE000F4000A168A11BB210A128A1173088316AD
:100DF0000313AF007208AE007108AD007008AC00BC
:100E00002C08303E83120313DF00831603133208CD
:100E10008400831203135F08831380000130DF0016
:100E20005F0883160313B207360883120313DF002B
:100E300001300310DF0DFF3E031D192F03105F0D5E
:100E4000123E840090300318013EFF000A168A11FA
:100E500000200A128A11F0000A168A1100200A12D4
:100E60008A11F1000A168A1100200A128A11F20072
:100E70000A168A1100200A128A11F300831603133E
:100E80002908F7002808F6002708F5002608F400CE
:100E90000A168A11BB210A128A11730883160313DA
:100EA000A9007208A8007108A7007008922E3030BF
:100EB00083120313DF0083160313320884008312A6
:100EC00003135F08831380000130DF005F0883167F
:100ED0000313B207FF30B0070318B10AFF30B107A0
:100EE0003008310403199D29572F83160313300846
:100EF0003104031D872F2908280427042604031D15
:100F0000872F0130B0070318B10A0030B107360847
:100F100083120313DF00E001DF1BE0036008803A67
:100F2000E100831603133108803A83120313610230
:100F3000031DA02F831603133008831203135F02CF
:100F40000318AD2F83160313300883120313DF0039
:100F50005F0883160313B600CF2F831603133608DA
:100F600083120313DF00E001DF1BE003831603138A
:100F70003108803A83120313E1006008803A61026D
:100F8000031DC62F5F088316031330020318CF2FEB
:100F9000831603133608B000B101B01BB103033050
:100FA00083160313240583120313DF000030831616
:100FB0000313250583120313E0005F08600403197F
:100FC0009D292D30DF00831603133208840083121D
:100FD00003135F08831380000130DF005F0883166E
:100FE0000313B2079D29320884008313800108008F
:100FF00083120313ED01EE0183010A128A15E72C17
:10100A00FA007A08803A783E031808000830F3009C
:10101A000030F4000A168A1551260A128A157A082F
:10102A00F700F801F71BF8030310F70DF80D03108A
:10103A00F70DF80D0310F70DF80D7708403EF30091
:10104A0078080318013E003EF4000A168A15512654
:10105A000A128A15FB017B08803A783E0318592840
:10106A007B087507F8007608F7000318F70AFB1BD8
:10107A00F7037708F900790883120313FF00780849
:10108A0084000A168A1100200A128A150A168A157D
:10109A0069260A128A150130F7007708FB077B08D0
:1010AA00803A783E031C35280130F3000030F40002
:1010BA000A168A1551260A128A150C30F3000030D6
:1010CA00F4000A168A155126080083120313C60073
:1010DA006E304602031C54290330BA003A08A400B1
:1010EA000A30F7000030F8004608BB00BC013B0894
:1010FA00F2003C08F3006430F0000030F1000A16F8
:10110A008A1170210A128A157108FA007008F9000A
:10111A000A168A115A220A128A157708093E0A16ED
:10112A008A1597260A128A15613E840090300318A0
:10113A00013E83120313FF000A168A1100200A12C5
:10114A008A15A7000A168A1100200A128A15A80011
:10115A000A168A1100200A128A15A9000330BD0056
:10116A003D08A4006430F7000030F8004608BE00CD
:10117A00BF013E08F9003F08FA000A168A115A22EE
:10118A000A128A157708123E0A168A1597260A1233
:10119A008A15613E840090300318013E83120313BE
:1011AA00FF000A168A1100200A128A15AA000A16D6
:1011BA008A1100200A128A15AB000A168A11002029
:1011CA000A128A15AC000A168A1124260A128A15EE
:1011DA00831203132708C3002808C4002908C5007E
:1011EA000330BA003A08A4004608BB00BC013B0819
:1011FA00F2003C08F3000A30F0000030F1000A1651
:10120A008A1170210A128A1570080A168A159726F9
:10121A000A128A15613E840090300318013E831237
:10122A000313FF000A168A1100200A128A15A70062
:10123A000A168A1100200A128A15A8000A168A11AB
:10124A0000200A128A15A9004308AA004408AB0024
:10125A004508AC000A168A1124260A128A15831236
:10126A0003132708C0002808C1002908C20000305B
:10127A00A7000030A8003F30A9004008AA00410892
:10128A00AB004208AC000A168A1124268312031303
:10129A002708B7002808B8002908B90008000B3049
:1012AA004602031CE6290330BA003A08A40046089D
:1012BA00BB00BC013B08F2003C08F3000A30F00016
:1012CA000030F1000A168A1170210A128A15700874
:1012DA000A168A1597260A128A15613E84009030EA
:1012EA000318013E83120313FF000A168A11002015
:1012FA000A128A15A7000A168A1100200A128A15EC
:10130A00A8000A168A1100200A128A15A9000330B9
:10131A00BD003D08A4000A30F7000030F800460876
:10132A00BE00BF013E08F9003F08FA000A168A11FA
:10133A005A220A128A157708093E0A168A1597262A
:10134A000A128A15613E840090300318013E831206
:10135A000313FF000A168A1100200A128A15AA002E
:10136A000A168A1100200A128A15AB000A168A1177
:10137A0000200A128A15AC000A168A1124260A12BB
:10138A008A15831203132708C3002808C4002908F2
:10139A00C5000030A7000030A8003F30A90043086C
:1013AA00AA004408AB004508AC000A168A11242694
:1013BA00831203132708B7002808B8002908B900C0
:1013CA0008000030A7000030A8003F30A900033011
:1013DA00BA003A08A40046080A168A1597260A127D
:1013EA008A15613E840090300318013E831203136C
:1013FA00FF000A168A1100200A128A15AA000A1684
:10140A008A1100200A128A15AB000A168A110020D6
:10141A000A128A15AC000A168A11242683120313AB
:10142A002708B7002808B8002908B900080083125D
:10143A000313BF00BF1F852BBF09BF0A3F08803AAD
:10144A00123E031CEC2A0330BA003A08A4000A3000
:10145A00F7000030F8003F08F200F301F21BF30333
:10146A006430F0000030F1000A168A1170210A1265
:10147A008A157108FA007008F9000A168A115A22A8
:10148A000A128A157708093E0A168A1597260A1239
:10149A008A15613E840090300318013E83120313BB
:1014AA00FF000A168A1100200A128A15A7000A16D6
:1014BA008A1100200A128A15A8000A168A11002029
:1014CA000A128A15A9000330BB003B08A400643045
:1014DA00F7000030F8003F08F900FA01F91BFA0397
:1014EA000A168A115A220A128A157708123E0A1611
:1014FA008A1597260A128A15613E840090300318CD
:10150A00013E83120313FF000A168A1100200A12F1
:10151A008A15AA000A168A1100200A128A15AB0037
:10152A000A168A1100200A128A15AC000A168A11B4
:10153A0024260A128A15831203132708BC002808D6
:10154A00BD002908BE000330BA003A08A4003F08CB
:10155A00F200F301F21BF3030A30F0000030F1004D
:10156A000A168A1170210A128A1570080A168A1533
:10157A0097260A128A15613E840090300318013EAC
:10158A0083120313FF000A168A1100200A128A1511
:10159A00A7000A168A1100200A128A15A8000A163C
:1015AA008A1100200A128A15A9003C08AA003D08DF
:1015BA00AB003E08AC000A168A11242683120313D4
:1015CA002708B7002808B8002908B90008003F080A
:1015DA00803A753E031C622B0330BA003A08A40015
:1015EA003F08F200F301F21BF3030A30F000003067
:1015FA00F1000A168A1170210A128A1570080A1651
:10160A008A1597260A128A15613E840090300318BB
:10161A00013E83120313FF000A168A1100200A12E0
:10162A008A15A7000A168A1100200A128A15A8002C
:10163A000A168A1100200A128A15A9000330BB0073
:10164A003B08A4000A30F7000030F8003F08F90010
:10165A00FA01F91BFA030A168A115A220A128A1582
:10166A007708093E0A168A1597260A128A15613ED4
:10167A00840090300318013E83120313FF000A16F8
:10168A008A1100200A128A15AA000A168A11002055
:10169A000A128A15AB000A168A1100200A128A1544
:1016AA00AC000A168A112426831203132708B700EE
:1016BA002808B8002908B90008000330BA003A0817
:1016CA00A4003F080A168A1597260A128A15613E4F
:1016DA00840090300318013E83120313FF000A1698
:1016EA008A1100200A128A15B7000A168A110020E8
:1016FA000A128A15B8000A168A110020B9000800D1
:10170A003F08803A123E031C4E2C0330BA003A08B6
:10171A00A4000A30F7000030F8003F08F200F30195
:10172A00F21BF3036430F0000030F1000A168A114C
:10173A0070210A128A157108FA007008F9000A164F
:10174A008A115A220A128A157708093E0A168A1538
:10175A0097260A128A153A3E840090300318013EF1
:10176A0083120313FF000A168A1100200A128A152F
:10177A00A7000A168A1100200A128A15A8000A165A
:10178A008A1100200A128A15A9000330BB003B08FF
:10179A00A4006430F7000030F8003F08F900FA01AD
:1017AA00F91BFA030A168A115A220A128A157708AD
:1017BA00123E0A168A1597260A128A153A3E84009C
:1017CA0090300318013E83120313FF000A168A1190
:1017DA0000200A128A15AA000A168A1100200A1283
:1017EA008A15AB000A168A1100200A128A15AC0063
:1017FA000A168A1124260A128A1583120313270845
:10180A00BC002808BD002908BE000330BA003A0807
:10181A00A4003F08F200F301F21BF3030A30F000C0
:10182A000030F1000A168A1170210A128A1570080E
:10183A000A168A1597260A128A153A3E84009030AB
:10184A000318013E83120313FF000A168A110020AF
:10185A000A128A15A7000A168A1100200A128A1586
:10186A00A8000A168A1100200A128A15A9003C0843
:10187A00AA003D08AB003E08AC000A168A112426CD
:10188A00831203132708B7002808B8002908B900EB
:10189A0008003F08803A753E031CC42C0330BA0086
:1018AA003A08A4003F08F200F301F21BF3030A30DE
:1018BA00F0000030F1000A168A1170210A128A1506
:1018CA0070080A168A1597260A128A153A3E840063
:1018DA0090300318013E83120313FF000A168A117F
:1018EA0000200A128A15A7000A168A1100200A1275
:1018FA008A15A8000A168A1100200A128A15A90058
:10190A000330BB003B08A4000A30F7000030F8009F
:10191A003F08F900FA01F91BFA030A168A115A223A
:10192A000A128A157708093E0A168A1597260A1294
:10193A008A153A3E840090300318013E831203133D
:10194A00FF000A168A1100200A128A15AA000A162E
:10195A008A1100200A128A15AB000A168A11002081
:10196A000A128A15AC000A168A1124268312031356
:10197A002708B7002808B8002908B900080003306A
:10198A00BA003A08A4003F080A168A1597260A12CE
:10199A008A153A3E840090300318013E83120313DD
:1019AA00FF000A168A1100200A128A15B7000A16C1
:1019BA008A1100200A128A15B8000A168A11002014
:1019CA00B90008000A168A15AA260A128A150A16E2
:1019DA008A115C240A128A1501300A168A157D2694
:1019EA000A128A151930F4009130F5000A168A1580
:1019FA0020270A128A15F501F50A02300A168A11F9
:101A0A0007220A128A150930F4009130F5000A16E5
:101A1A008A1520270A128A154D3083120313EC0007
:101A2A001930EB004F30EA00EA0B192DEB0B192D98
:101A3A00EC0B192D0A168A1559260A128A15263010
:101A4A00F4009130F5000A168A1520270A128A1521
:101A5A00B930F8000730F9000A168A1113230A125E
:101A6A008A15F501F50A02300A168A1107220A12A6
:101A7A008A153130F4009130F5000A168A152027AC
:101A8A000A128A15C73083120313A500CF30A600A5
:101A9A000A168A1543270A128A154D308312031330
:101AAA00EC001930EB004F30EA00EA0B5A2DEB0B31
:101ABA005A2DEC0B5A2D0A168A1559260A128A151E
:101ACA00063083160313CB009E30CC00BF30CD0006
:101ADA00F130CE004330CF003F30D000A430D100E7
:101AEA003430D2004230D3003A30F4009130F5005D
:101AFA000A168A1520270A128A15831603134B0819
:101B0A0083120313E500831603134C08831203138D
:101B1A00E600831603134D0883120313E70003300C
:101B2A00EA006A08E8000A168A11EA230A128A15E4
:101B3A00F501F50A02300A168A1107220A128A15D5
:101B4A00831603134E0883120313E5008316031347
:101B5A004F0883120313E6008316031350088312F7
:101B6A000313E7000430EA006A08E8000A168A113B
:101B7A00EA230A128A1520300A168A1569260A12D9
:101B8A008A1583160313510883120313E50083167B
:101B9A000313520883120313E60083160313530830
:101BAA0083120313E700E801E80A0A168A11EA23F6
:101BBA000A128A154D3083120313EC001930EB0018
:101BCA004F30EA00EA0BE72DEB0BE72DEC0BE72D84
:101BDA000A168A1559260A128A15E030F50090303D
:101BEA00F60000300A128A1505200A128A15D83022
:101BFA00F5009030F60001300A128A1505200A1203
:101C0A008A15D030F5009030F60002300A128A1593
:101C1A0005200A128A15C830F5009030F600033004
:101C2A000A128A1505200A128A15C030F50090306A
:101C3A00F60004300A128A1505200A128A15B830ED
:101C4A00F5009030F60005300A128A1505200A12AE
:101C5A008A15B030F5009030F60006300A128A155F
:101C6A0005200A128A15A830F5009030F6000730D0
:101C7A000A128A1505200A128A150A168A15592681
:101C8A000A128A15E830F4009030F5000A168A150F
:101C9A0020270A128A15F501F50A02300A168A1156
:101CAA0007220A128A1500300A168A1569260A12AC
:101CBA008A1501300A168A1569260A128A1502300F
:101CCA000A168A1569260A128A1503300A168A150F
:101CDA0069260A128A1504300A168A1569260A1212
:101CEA008A1505300A168A1569260A128A150630D7
:101CFA000A168A1569260A128A1507300A168A15DB
:101D0A0069260A128A154D3083120313EC00193022
:101D1A00EB004F30EA00EA0B902EEB0B902EEC0B07
:101D2A00902E0A168A1559260A128A158316031343
:101D3A00D801D80A103083120313EA006A088316FE
:101D4A000313D500A030F5009030F60000300A12D7
:101D5A008A1505200A128A159830F5009030F60087
:101D6A0001300A128A1505200A128A159030F500E8
:101D7A009030F60002300A128A1505200A128A15D6
:101D8A008830F5009030F60003300A128A150520D3
:101D9A000A128A150A168A1559260A128A158316EC
:101DAA000313D6015608803A703E0318742F0A1698
:101DBA008A1559260A128A1583160313580883129C
:101DCA000313EA006A08F50001300A168A1107228D
:101DDA000A128A1500300A168A1569260A128A1505
:101DEA00831603135808013E83120313EA006A0894
:101DFA0083160313D7005708803A6F3E0318182F2B
:101E0A0002300A168A1569260A128A1501308312C7
:101E1A000313EA006A0883160313D7075708803AA0
:101E2A006F3E031C052FF501F50A02300A168A11C6
:101E3A0007220A128A1583160313D401D40A5408F6
:101E4A0083120313EA00EB01EA1BEB036B08803AE7
:101E5A00EC0080306C02031D382F831603135508DB
:101E6A00831203136A020318492F02300A168A15CD
:101E7A0069260A128A15013083120313EA006A08D6
:101E8A0083160313D407242F01300A168A156926EC
:101E9A000A128A15013083120313EA006A088316AC
:101EAA000313D8070130D502043083120313EC0060
:101EBA00CF30EB000130EA00EA0B612FEB0B612F08
:101ECA00EC0B612F013083120313EA006A088316B0
:101EDA000313D6075608803A703E031CDC2ED8013D
:101EEA00D80A103083120313EA006A088316031310
:101EFA00D5000A168A1559260A128A150330831242
:101F0A000313EC008A30EB005530EA00EA0B8B2F02
:101F1A00EB0B8B2FEC0B8B2FF930F4009030F50084
:101F2A000A168A1520270A128A151A3083120313F1
:101F3A00EC005E30EB006D30EA00EA0BA22FEB0BEF
:101F4A00A22FEC0BA22FA92FF501F50A02300A16CF
:101F5A008A1107220A128A1583160313D90111302E
:101F6A0059020318FA2F590883120313EA006A0860
:101F7A00F50002300A168A1107220A128A15203041
:101F8A000A168A1569260A128A158316031359082E
:101F9A00013E83120313EA006A08F50002300A16AA
:101FAA008A1107220A128A1503300A168A15692627
:101FBA000A128A15043083120313EC008E30EB00E8
:101FCA001130EA00EA0BE72FEB0BE72FEC0BE72FB8
:101FDA00EE2F013083120313EA006A0883160313F3
:101FEA00D90711305902031CB82F0A168A15592627
:101FFA000A128A15F72CFF1B0A2883137F188317E6
:10200A000008840A0319FF0A08007F087F398A003A
:10201A000408840A0319FF0A8200013400340034D8
:10202A0000340A3400340034003464340034003498
:10203A000034E834033400340034103427340034D4
:10204A000034A034863401340034403442340F342E
:10205A00003480349634983400340034E134F53452
:10206A0005340034CA349A343B34003480343F3463
:10207A000034203441340034C834423400347A34D1
:10208A00443440341C3446345034C3344734243442
:10209A0074344934973418344B34BC34BE344C3419
:1020AA006B346E344E340334153450347934AD34D1
:1020BA006034F33449347134003480343F34CD34DD
:1020CA00CC343D34D73423343C34123483343A3458
:1020DA00B734D1343834C6342734373438348634B4
:1020EA003534C034D6343334CC342B3432347034AF
:1020FA0089343034E734DB342E34E5343C341E344E
:10210A004234A2340D340E341F3415341F341F34B4
:10211A001F341534003400340034003406340634D5
:10212A0000340034003400340E3417341F340334BE
:10213A001F340E34003400340E341D341F34183466
:10214A001F340E34003400340A340A3400340E3496
:10215A0011340034003400340A340A34003411349F
:10216A000E34003400340E341F3415341F340E3448
:10217A0000340E340034043411340E341F340E3457
:10218A0011340434003411340A341F3415341F3422
:10219A001F340A341B3400340A341F341F340E34FB
:1021AA0004340034003400341F341F341F341F3405
:1021BA001F3400340034103418341C341E341C34D8
:1021CA001834103400344334613472346134743452
:1021DA007434653472346934203463347534733436
:1021EA0074346F346D3400345334453454345434B5
:1021FA004F34523445345A34453452344F342E34E1
:10220A0043344F344D340034733465347434743485
:10221A006F34723465347A34653472346F342E34E0
:10222A0063346F346D340034483465346C346C3440
:10223A006F34203457346F3472346C34643421343C
:10224A00003455346E347334693467346E3465340B
:10225A0064343A34203400345334693467346E3485
:10226A00653464343A342034003446346C346F3480
:10227A006134743473343A342034003425342E34BF
:10228A0031346634003425342E3432346634003422
:10229A0025342E3433346634003425342E34343421
:0422AA006634003462
:1022B200F2000A168A1595270A168A11003A031D9A
:1022C2005A2972080A168A15BE260A168A11F20EB1
:1022D200F030F20572080A168A15BE260800F601C9
:1022E200F31F7A29F209F309F20A0319F30AF60134
:1022F200F60AF11F8129F009F109F00A0319F10A1E
:10230200700871040319AE29F501F50AF11B95292C
:1023120001300310F00DF10DFF3E031D8A2901303B
:10232200F4007408F507872971087302031D9B29BD
:1023320070087202031CA3297008F2027108031CC0
:10234200F303F30201300310F10CF00CFF3E031D06
:10235200A4290130F502031D952976080319B6292F
:10236200F209F309F20A0319F30A7308F100720879
:10237200F000080073087204710470040319FE2946
:10238200F901F90AF31BD3290130F8000310F00D0B
:10239200F10DF20DF30DF80BC7290130F8007808A2
:1023A200F907C32973087702031DE129720876022F
:1023B200031DE12971087502031DE12970087402E9
:1023C200031CF1297008F4027108031C710FF50255
:1023D2007208031C720FF6027308031C730FF702D4
:1023E20001300310F30CF20CF10CF00CFF3E031D54
:1023F200F2290130F902031DD3297708F300760888
:10240200F2007508F1007408F0000800F700770880
:10241200803A7D3E031C112A0230F6007608F7004E
:102422007508803A6F3E031C4B2A1030F60076087E
:10243200F5004B2A7F307507F300F4010318F40A04
:10244200F51BF4030A168A1551260800BF307507DA
:10245200F300F4010318F40AF51BF4030A168A15B3
:10246200512608008F307507F300F4010318F40AAF
:10247200F51BF4030A168A1551260800CF3075079A
:10248200F300F4010318F40AF51BF4030A168A1583
:10249200512608007708013A03191B2A033A031947
:1024A200272A013A0319332A073A03193F2A592ADC
:1024B200080083120313A101F81F662AF709F8091D
:1024C200F70A0319F80AA101A10AFA1F712AF909E8
:1024D200FA09F90A0319FA0A0130FB007B08A1067E
:1024E200A201A301770878040319A82AA001A00A6F
:1024F200F81B872A01300310F70DF80DFF3E031D6C
:102502007C2A0130FB007B08A007792A01300310E6
:10251200A20DA30DFF3E031D882A78087A02031D2F
:10252200942A77087902031C9D2A7708F902780811
:10253200031CFA03FA02221401300310F80CF70C00
:10254200FF3E031D9E2A0130A002031D872A210897
:102552000319B02AA209A309A20A0319A30A23088C
:10256200F8002208F70008000030FC000030FB00F1
:102572000030FA000030F90073087204710470042C
:1025820003190A2BFD01FD0AF31BD52A0130F800BD
:102592000310F00DF10DF20DF30DF80BC92A013005
:1025A200F8007808FD07C52A0130F8000310F90D7C
:1025B200FA0DFB0DFC0DF80BD72A73087702031DE9
:1025C200EC2A72087602031DEC2A71087502031DBB
:1025D200EC2A70087402031CFD2A7008F4027108C8
:1025E200031C710FF5027208031C720FF6027308C6
:1025F200031C730FF702791401300310F30CF20C71
:10260200F10CF00CFF3E031DFE2A0130FD02031DFA
:10261200D52A7C08F3007B08F2007A08F1007908D9
:10262200F000080083120313A0010430FA007A08B4
:10263200A400752B1030A1002730282BE830A10010
:102642000330282B6430262B0A30A1000030A20070
:10265200382B2408013A0319252B033A0319232B9B
:10266200013A03191F2B073A03191B2B382B220897
:10267200F1002108F0007908F3007808F2000A1648
:102682008A15C4270A168A117008FA007A0883127A
:102692000313A30020080319230803195B2B230843
:1026A200303E0A168A1569260A168A118312031306
:1026B200A001A00A2308FA00FB017A08F0007B08B7
:1026C200F1002208F3002108F2000A168A15FF26FB
:1026D2000A168A117008F8027108031CF903F9023C
:1026E200013083120313A4022408031D2A2B780845
:1026F200303E0A168A156926080073080319862BCC
:10270200720871047004031D992B0030F000003030
:10271200F1000030F20008000130F5007508F307FF
:1027220001300310F20CF10CF00CFF3E031D922B52
:10273200FE3072050319B42B8D2B0130F50075089C
:10274200F3070130F007003003180130F1070030C1
:1027520003180130F20701300310F20CF10CF00CF7
:10276200FF3E031DAD2BFF3072050319C32B9E2BB9
:102772000130F30201300310F00DF10DF20DFF3EB6
:10278200031DBC2BF11BC92B023073020318B92B9A
:102792007318D12BFF30F0057F30F105FF30F205C1
:1027A2000310F30C7308F500F601F7011030031063
:1027B200F50DF60DF70DFF3E031DD82B7508F0043D
:1027C2007608F1047708F204740803190800F21776
:1027D20008000530831203136802031CF42B043033
:1027E200E9006908E8006808031D442CE801E80ACA
:1027F200442C4330DA009130DB006508DC006608C7
:10280200DD006708DE00B7300A128A1192210A162B
:102812008A11542C483083120313DA009130DB0002
:102822006508DC006608DD006708DE00B7300A12C2
:102832008A1192210A168A11542C4D3083120313E5
:10284200DA009130DB006508DC006608DD0067080D
:10285200DE00B7300A128A1192210A168A11542C0C
:10286200523083120313DA009130DB006508DC007A
:102872006608DD006708DE00B7300A128A1192216D
:102882000A168A11542C831203136808013A031999
:10289200FA2B033A03190B2C013A03191E2C073A9F
:1028A2000319312C542CB730F4000030F5000A160D
:1028B2008A1520270800831603130811881088112F
:1028C2008813081388120812871083120313081141
:1028D200881088110230F7008630F6009930F50032
:1028E200F50B712CF60B712CF70B712C03300A16B9
:1028F2008A15BE260A168A114130F600EE30F5001E
:10290200F50B812CF60B812C00000A168A15722613
:102912000A168A11F930F500F50B8D2C902C0A1647
:102922008A1572260A168A110830F500F50B972CC3
:1029320002300A168A15BE260A168A110A168A1546
:1029420095270A168A11003A031D9F2C2830F3009E
:102952000030F4000A168A1551260A168A11083028
:10296200F3000030F4000A168A1551260A168A115D
:102972000130F3000030F4000A168A1551260A16B7
:102982008A110630F3000030F4000A168A15512627
:102992000A168A110C30F3000030F4000A168A1568
:1029A20051260800831203134008C4004108C500E1
:1029B2004208C6000310450D460DC7004708CD006A
:1029C2004D08031DED2C0030C3000030C200003062
:1029D200C1000030C00008004008C4004108C50022
:1029E2004208C60017300310C60CC50CC40CFF3ECB
:1029F200031DF42C4408C7004708C800C117FF3064
:102A0200C005FF30C1050030C2054008C9004108B9
:102A1200CA004208CB00CC018E30CD02CD1F2F2D33
:102A22004D08803A8F3E03181F2D0030C30000303E
:102A3200C2000030C1000030C000080001300310A5
:102A4200CC0CCB0CCA0CC90CFF3E031D202D01304F
:102A5200C4004408CD0703194A2D1F2D18304D021A
:102A6200031C472D0030C3000030C2000030C100FB
:102A72000030C00008000130C4000310C90DCA0DA7
:102A8200CB0DCC0DC40B3E2D0130CD024D08031DE4
:102A92003C2D48080319582DC909CA09CB09CC098C
:102AA200C90A0319CA0A0319CB0A0319CC0A4C082A
:102AB200C3004B08C2004A08C1004908C000080010
:102AC2007008F6007108F7007208F8000310770D1D
:102AD200780DF900790883120313A5002508031D58
:102AE2007B2D0030F3000030F2000030F1000030A6
:102AF200F00008007308F6007408F7007508F80083
:102B02000310770D780DF9007908A4002408031D3D
:102B1200932D0030F3000030F2000030F10000305D
:102B2200F0000800F117FF30F005FF30F10500302A
:102B3200F205F417FF30F305FF30F4050030F50518
:102B42000030A3000030A2000030A1000030A0003D
:102B52007F30A50298302407F6007608A5021830C7
:102B6200F6007608A4000130F6000310A00DA10DB6
:102B7200A20DA30DF60BB62D75087202031DC72D0B
:102B820074087102031DC72D73087002031CD42D33
:102B92007308F0027408031C740FF1027508031C19
:102BA200750AF202201401300310F00DF10DF20D3E
:102BB200FF3E031DD52D0130A402031DB42DA51F18
:102BC200002E2508803A973E0318F02D0030F300BE
:102BD2000030F2000030F1000030F0000800013057
:102BE2000310A30CA20CA10CA00CFF3E031DF12D9F
:102BF2000130F6007608A50703191B2EF02D1830B8
:102C02002502031C182E0030F3000030F2000030C1
:102C1200F1000030F00008000130F6000310A00DB2
:102C2200A10DA20DA30DF60B0F2E0130A502250852
:102C3200031D0D2E2308F3002208F2002108F100E3
:102C42002008F0000800831203132708AD002808AB
:102C5200AE002908AF0003102E0D2F0DB000300872
:102C6200B1003108031D3C2E0030A7000030A8003F
:102C72000030A90008002A08AD002B08AE002C087D
:102C8200AF0003102E0D2F0DB0003008B60036082D
:102C9200031D522E0030A7000030A8000030A9000A
:102CA200080036087B3EAD002D08B1072708AD00AD
:102CB2002808AE002908AF0010300310AF0CAE0C8C
:102CC200AD0CFF3E031D5E2E2D08B0003008B6008D
:102CD2002A08AD002B08AE002C08AF0010300310FC
:102CE200AF0CAE0CAD0CFF3E031D702E2D08B000D4
:102CF2003008B6068030AD002D08B605A817AB1710
:102D0200FF30AA05FF30AB050030AC050030B20041
:102D12000030B3000030B4000730AD002D08B5001C
:102D2200271CA12E2A08B2072B08031103182B0A0D
:102D3200031DB3072C08031103182C0A031DB40743
:102D420001300310A90CA80CA70CFF3E031DA22EF4
:102D520001300310AA0DAB0DAC0DFF3E031DAA2ED0
:102D62000130B502031D912E0930AD002D08B500CA
:102D7200271CC92E2A08B2072B08031103182B0A95
:102D8200031DB3072C08031103182C0A031DB407F3
:102D920001300310A90CA80CA70CFF3E031DCA2E7C
:102DA20001300310B40CB30CB20CFF3E031DD22E43
:102DB2000130B502031DB92E3208F0003308F100CC
:102DC2003408F2003108AD002D08F3003608AE00D9
:102DD2002E08F4000A168A117E2370088312031348
:102DE200A7007108A8007208A90008008312031343
:102DF2004708CD004808CE004908CF0003104E0D09
:102E02004F0DD0005008D3004A08CD004B08CE0029
:102E12004C08CF0003104E0D4F0DD0005008D200C9
:102E220053080319202F520853020318272F530364
:102E3200FF3A5207CD0019304D02031C272F4A08D2
:102E4200C7004B08C8004C08C90008005208031903
:102E52000800530852020318362F5203FF3A530751
:102E6200CD0019304D02031808000630CD004D0880
:102E7200D100C91BD117CC1B5117C817FF30C7058A
:102E8200FF30C8050030C905CB17FF30CA05FF3037
:102E9200CB050030CC05520853020318762F0130BF
:102EA2000310CA0DCB0DCC0DFF3E031D512F013077
:102EB200D202520853060319712F0130D102510870
:102EC20007390319712F502F01300310C90CC80C98
:102ED200C70CFF3E031D662F0130CD004D08D307FE
:102EE2005308520603199F2F652F530852020318E5
:102EF2009F2F01300310C70DC80DC90DFF3E031DE2
:102F02007B2F0130D3025208530603199B2F013045
:102F1200D1025108073903199B2F7A2F0130031070
:102F2200CC0CCB0CCA0CFF3E031D902F0130CD0000
:102F32004D08D20753085206031D8F2FD11FB12F00
:102F4200FF30C706FF30C806FF30C9060130C70789
:102F5200003003180130C807003003180130C907D8
:102F6200511FC32FFF30CA06FF30CB06FF30CC06FD
:102F72000130CA07003003180130CB0700300318B4
:102F82000130CC07D1014708CA07480803110318CA
:102F9200480A031DCB07490803110318490A031DF8
:102FA200CC07CC1FE62FFF30CA06FF30CB06FF301E
:102FB200CC060130CA07003003180130CB070030BD
:102FC20003180130CC07D101D10A4A08F0004B089E
:102FD200F1004C08F2005308CD004D08F3005108EF
:102FE200CE004E08F4000A168A117E23700883125E
:0E2FF2000313C7007108C8007208C900080068
:103CA20083120313081173080A168A115921080096
:103CB2000130F3000030F4000A168A15512608007C
:103CC200720871047004031908008030F2060800BB
:103CD200F30083120313081573080A168A11592177
:103CE20008008312031388150330F000F00B772EBF
:103CF2008312031388110800F00070080319852E3F
:103D02008312031387140800831203138710080019
:103D1200F100F0013A3071020318952E3030710231
:103D2200031C952EF001F00A700C08008312031395
:103D3200A600A501261CA12E2408FC007C08A507CC
:103D42000310A40D0310A60C2608031D9B2E2508A4
:103D520008008316031788018901831203131F10B9
:103D6200FF30831603138500FF308600FF30870083
:103D7200FF308800FF3089000800F100F11FC52ED6
:103D8200831203138817C82E831203138813711F1B
:103D9200CC2E0817CD2E0813F11ED12E8816D22E46
:103DA2008812711ED62E0816D72E0812D82ED92E9A
:103DB20000000A168A157226080083120313560899
:103DC200550454040319E72E8030D6065708C7005D
:103DD2005808C8005908C9005408CA005508CB0041
:103DE2005608CC000A168A11F726831203134708D5
:103DF200D4004808D5004908D6000800F401F501AE
:103E0200701C092F7208F4070318F50A7308F507E6
:103E120001300310F20DF30DFF3E031D0A2F013096
:103E22000310F10CF00CFF3E031D112F70087104FA
:103E3200031D012F7508F1007408F00008007508D1
:103E420083120313FF00740884000A168A110020EB
:103E52000A168A15003A031908007508831203131B
:103E6200FF00740884000A168A1100200A168A15B7
:103E72000A168A1569260A168A150130F4070318EC
:103E8200F50A202F83120313A61F622F2D300A1664
:103E92008A1569260A168A15FF30F000FF30F100F4
:103EA200831203132608F3002508F2000A168A1566
:103EB200FF260A168A15710883120313A6007008DA
:103EC200A5002608F9002508F8000A168A1113230E
:103ED20008008E30FC007C08FD00FF307B050319D2
:103EE200802F01300310FB0CFA0CF90CF80CFF3E8A
:103EF200031D732F0130FC007C08FD076E2F78082C
:103F0200F0007908F1007A08F2007D08FC007C08D4
:103F1200F300F4010A168A117E237008F800710872
:103F2200F9007208FA0008008316031388170817AD
:103F32008816081600308312031308190130ED00A9
:103F4200881408118815A52FA62F000000308312AF
:103F52000313881B0130EE008811AF2FB02F000031
:103F62000A168A15722683160313881308138812F9
:103F720008128312031388106D0C031C0811031816
:103F820008156E080800F501F6017008710403199E
:103F9200FB2FF701F70AF11BDA2F01300310F00DA6
:103FA200F10DFF3E031DCF2F0130F4007408F70717
:103FB200CC2F01300310F50DF60DFF3E031DDB2F54
:103FC20071087302031DE72F70087202031CF02FA1
:103FD2007008F2027108031CF303F3027514013036
:103FE2000310F10CF00CFF3E031DF12F0130F7021C
:0E3FF200031DDA2F7608F1007508F0000800B4
:04400E00E2E0FFFEEF
:00000001FF
