:100000000A128A1103280A128A11E3270A128A1196
:100010008312031308180D280E281C2864300A12B6
:100020008A11C9270A128A11831203130818192882
:100030001A281B2808151D2808118818202821288F
:100040002F2864300A128A11C9270A128A118312D2
:10005000031388182C282D282F28083088060828F4
:060060000A128A110028BB
:100F9200F0000430F100FA30F200D02FD02F0130EF
:100FA200F202031DD52FD62FCF2F0130F102031DE0
:100FB200DB2FDC2FCC2F0130F002031DE12FE22FBB
:100FC200CA2F0800031083160313003003180130E0
:100FD2008500031000300318013086000310003032
:100FE2000318013087000330880003100030031813
:0E0FF2000130890083120313081188110800D2
:02400E00323F3F
:00000001FF
