:060000000A128A11122809
:10000800FE00030EFA000408FB000A08FC00831235
:1000180003137F08FD000A128A1122280A128A1186
:10002800152883120313A001A101A201A301A401B1
:10003800A501A60183010A128A11412A0B1D362A3D
:10004800643081002208031941280130F80078083B
:10005800A6070A302606031D4128A6010130A0077D
:100068000318A10A0030A107273021021030031914
:100078002002031C4128A001A101A701A801A90190
:10008800AA010130F8007808A507DD290911E83030
:10009800F0000330F1002108F3002008F2000A12F2
:1000A8008A11AC220A128A11710883120313A8005C
:1000B8007008A7002808F1002708F000E830F200CF
:1000C8000330F3000A128A11E8220A128A11700911
:1000D800F8007109F900F80A0319F90A83120313E1
:1000E80020087807A90021080318210A7907AA001F
:1000F8006430F0000030F1002A08F3002908F2000B
:100108000A128A11AC220A128A1171088312031387
:10011800A8007008A7002808F1002708F00064303C
:10012800F2000030F3000A128A11E8220A128A113A
:100138007009F8007109F900F80A0319F90A83121D
:10014800031329087807A9002A0803182A0A790737
:10015800AA000A30F0000030F1002A08F30029084C
:10016800F2000A128A11AC220A128A11710883124B
:100178000313A8007008A7002808F1002708F0005A
:100188000A30F2000030F3000A128A11E8220A123B
:100198008A117009F8007109F900F80A0319F90AB7
:1001A8008312031329087807A9002A0803182A0AC2
:1001B8007907AA00EB29E830F0000330F1002108A4
:1001C800F3002008F2000A128A11AC220A128A11DE
:1001D800710883120313A8007008A7002808F1000B
:1001E8002708F000E830F2000330F3000A128A1101
:1001F800E8220A128A117009F8007109F900F80A50
:100208000319F90A8312031320087807A9002108A3
:100218000318210A7907AA006430F0000030F100C1
:100228002A08F3002908F2000A128A11AC220A12DD
:100238008A11710883120313A8007008A700280800
:10024800F1002708F0006430F2000030F3000A12D1
:100258008A11E8220A128A117009F8007109F90056
:10026800F80A0319F90A8312031329087807A90061
:100278002A0803182A0A7907AA000A30F000003071
:10028800F1002A08F3002908F2000A128A11AC22A8
:100298000A128A11710883120313AA007008A900B0
:1002A800220803196B2900302A0205300319290294
:1002B80003186A2900302102643003192002031C44
:1002C8006A290130F8007808A3006B29A3010030DF
:1002D80021020A3003192002031CEB298910EB299B
:1002E800E830F0000330F1002108F3002008F200A4
:1002F8000A128A11AC220A128A1171088312031396
:10030800A8007008A7002808F1002708F000E830C6
:10031800F2000330F3000A128A11E8220A128A1145
:100328007009F8007109F900F80A0319F90A83122B
:10033800031320087807A90021080318210A790760
:10034800AA006430F0000030F1002A08F300290800
:10035800F2000A128A11AC220A128A117108831259
:100368000313AA007008A9000030210264300319A1
:100378002002031CEB290910EB29E830F0000330B8
:10038800F1002108F3002008F2000A128A11AC22B9
:100398000A128A11710883120313AA007008A900AF
:1003A80003302102E83003192002031CEB298512CF
:1003B800EB292408003A03194A28013A0319DF28CF
:1003C800033A03197429013A0319C129EB292308AF
:1003D800F80007300310F80DFF3E031DEE29290829
:1003E800013E84000A128A1128230A128A1178070A
:1003F800FF3A880005302506031D352AA50101307E
:10040800F8007808A407043024060319A401230877
:10041800F80006300310F80DFF3E031D0E2A0310E6
:10042800780DFF3A013EFF3E8800272A89141D2ACD
:1004380009150914212A091589148516352A09155B
:1004480089140914352A2408003A03191A2A013A8A
:1004580003191C2A033A03191F2A013A0319232AEC
:10046800352A0B117D08FF007C088A007B08840070
:100478007A0E8300FE0E7E0E09000A128A110923E5
:100488000A128A110A128A1138230A128A118B1742
:1004980083120313061A7D2A023083120313AD0058
:1004A8004530AC00A930AB00AB0B582AAC0B582A2E
:1004B800AD0B582A83120313061A6D2A0130AB00BC
:1004C8002B08A2062208031D6D2A0130AB002B0859
:1004D800A300061E6D2A023083120313AD004530B7
:1004E800AC00A930AB00AB0B772AAC0B772AAD0B6D
:1004F800772A83120313861A4C2A27308312031390
:10050800AD000D30AC002530AB00AB0B892AAC0B2D
:10051800892AAD0B892A902A83120313861A4C2A3A
:100528000A128A1138230A128A1183120313861EAB
:10053800992A023083120313AD004530AC00A9306C
:10054800AB00AB0BA52AAC0BA52AAD0BA52A4C2AF0
:10055800F501F601700871040319E32AF701F70A97
:10056800F11BC22A01300310F00DF10DFF3E031DEF
:10057800B72A0130F4007408F707B42A01300310D1
:10058800F50DF60DFF3E031DC32A71087302031D06
:10059800CF2A70087202031CD82A7008F202710868
:1005A800031CF303F302751401300310F10CF00C73
:1005B800FF3E031DD92A0130F702031DC22A76081F
:1005C800F1007508F0000800F401F501701CF22A2A
:1005D8007208F4070318F50A7308F50701300310C9
:1005E800F20DF30DFF3E031DF32A01300310F10C49
:1005F800F00CFF3E031DFA2A70087104031DEA2A55
:100608007508F1007408F0000800831603178801C4
:100618008901831203131F10DF308316031385002B
:10062800FF308600FF3087008801F830890081128A
:1006380081110108F8390438810081138B16643060
:10064800831203138100080003308A000408840A17
:10065800820700343F3406345B344F3466346D34DB
:100668007D3407347F346F3483120313A001A10152
:08067800A601A301A201080084
:04400E00E2E0FFFEEF
:00000001FF
