:100000000A128A1103280A128A1191260A128A11E9
:100010000A128A1129270A128A1103108312031364
:10002000003003180130B1000E30A4002408B000E5
:100030001F30A5002508AF001830A6002608AE0026
:100040001F30A7002708AD001D30A8002808AC000D
:100050000E30A9002908AB0003100030031801304E
:10006000AA0000300A128A1192270A128A1103107C
:1000700083120313003003180130B1000310003065
:1000800003180130B0000310003003180130AF0036
:100090000630A4002408AE000630A5002508AD00F7
:1000A0000310003003180130AC00031000300318B7
:1000B0000130AB000310003003180130AA000130FA
:1000C0000A128A1192270A128A110310831203134B
:1000D000003003180130B1001530A4002408B0002E
:1000E0001F30A5002508AF001F30A6002608AE006F
:1000F0001F30A7002708AD001530A8002808AC0065
:100100001F30A9002908AB000E30AA0002300A12E5
:100110008A1192270A128A110A128A1158260A1283
:100120008A1100300A128A1140260A128A11003000
:1001300083120313A0000030A1009E2801300A1290
:100140008A1140260A128A11831203130130A00774
:100150000318A10A0030A1072108803AA4008030CA
:100160002402031DB5280F302002031CB828B9282B
:100170009E28AA010314AA0D02300A128A11F7263A
:100180000A128A11003083120313A2000030A30068
:10019000C92801300A128A1140260A128A118312D4
:1001A00003130130A2070318A30A0030A307230892
:1001B000803AA40080302402031DE0280F30220280
:1001C000031CE328E428C92802300A128A114026B9
:0C01D0000A128A11EA280A128A1100287B
:100C800083120313B4000815340883130A128A115F
:100C9000D4260A128A11080083120313B400081123
:100CA000340883130A128A11D4260A128A11080002
:100CB00001300A128A114C260A128A1103300A12D4
:100CC0008A1175260A128A110800831203138815E7
:100CD000B8010314B80D6D2E6D2E0130B802031D3E
:100CE000722E732E6C2E8811080083120313B40029
:100CF0000430B500FA30B6007E2E7E2E0130B602EA
:100D0000031D832E842E7D2E0130B502031D892EF6
:100D10008A2E7A2E0130B402031D8F2E902E782E4B
:100D200008000310831603130030031801308500F8
:100D30000F308600031000300318013087000310C5
:100D40000030031801308800031000300318013010
:100D500089000310831203130030031801308B0045
:100D60000800B700B71FB52EB62EB82E8817B92EBB
:100D70008813371FBC2EBD2EBF2E0817C02E081398
:100D8000B71EC32EC42EC62E8816C72E8812371E35
:100D9000CA2ECB2ECD2E0816CE2E08120A128A117C
:100DA00065260A128A11080083120313B50035085C
:100DB00083130A128A11B1260A128A1183120313AD
:100DC000B50EF030B505350883130A128A11B12625
:100DD0000A128A11323083120313B600F02EF02E5D
:100DE0000130B602031DF52EF62EEF2E0800AB00E3
:100DF000192F2A087F3E0A128A114C260A128A11DC
:100E0000282F2A08BF3E0A128A114C260A128A117C
:100E1000282F2A088F3E0A128A114C260A128A119C
:100E2000282F2A08CF3E0A128A114C260A128A114C
:100E3000282F2B088313013A0319F92E033A0319BB
:100E4000012F013A0319092F073A0319112F282FEF
:100E5000080083120313081132300A128A11752612
:100E60000A128A11831203130816881608138813AE
:100E70000A128A1165260A128A1106300A128A118C
:100E800075260A128A110A128A1165260A128A1117
:100E9000963083120313AA004E2F4E2F0130AA0260
:100EA000031D532F542F4D2F0A128A1165260A1243
:100EB0008A1106300A128A1175260A128A118312C3
:100EC000031308120A128A1165260A128A11643065
:100ED00083120313AB006D2F6D2F0130AB02031D86
:100EE000722F732F6C2F28300A128A11D4260A12FF
:100EF0008A1108300A128A11D4260A128A11003087
:100F00000A128A11D4260A128A110C300A128A1186
:100F1000D4260A128A1106300A128A11D4260A121D
:100F20008A110800B20008300A128A114C260A12EF
:100F30008A110A128A1158260A128A11831203137F
:100F400032088313B30002300310B30DFF3E031DBC
:100F5000A42F0310330D403E0A128A114C260A12A8
:100F60008A11831203132A0883130A128A11402656
:100F70000A128A11831203132B0883130A128A118F
:100F800040260A128A11831203132C0883130A12B3
:100F90008A1140260A128A11831203132D08831323
:100FA0000A128A1140260A128A11831203132E088C
:100FB00083130A128A1140260A128A11831203131C
:100FC0002F0883130A128A1140260A128A118312EB
:100FD0000313300883130A128A1140260A128A1159
:100FE00083120313310883130A128A1140260A124E
:100FF0008A110C300A128A114C260A128A11080032
:02400E00323F3F
:00000001FF
