:0600000000308A00122806
:10000800FF00030883120313A7000408A8000A08C6
:10001800A9007E08AA000A128A11192983177930C3
:1000280084007C300A128A111F200A128A11830167
:100038000A128A11272864008001840A0406031919
:100048000034040620280A128A115C220A128A1136
:1000580083120313781483120313781C3428352869
:10006800AF28881A382839285C28081E3C283D28DB
:100078005C2864300A128A1199220A128A118312A2
:100088000313881A482849285C28081E4C284D283C
:100098005C280130A0002008F90764307902031CAD
:1000A800562857285C280310003003180130F9003F
:1000B800081A5F2860288028881E632864288028FA
:1000C80064300A128A1199220A128A1183120313C0
:1000D800081A6F2870288028881E7328742880289A
:1000E800F908031D782879287E286330A0002008A5
:1000F800F90080280130F902081A83288428AF28DB
:10010800881A87288828AF28FA300A128A11992273
:100118000A128A11FA300A128A1199220A128A11CD
:10012800FA300A128A1199220A128A11FA300A122E
:100138008A1199220A128A1183120313081AA52810
:10014800A628AF28881AA928AA28AF2803100030A3
:1001580003180130F9000819B228B328C4286430FC
:100168000A128A1199220A128A1183120313081992
:10017800BE28BF28C4280A128A11C8220A128A1166
:10018800831203138819C928CA28DC2864300A1284
:100198008A1199220A128A11831203138819D52801
:1001A800D628DC2878100A128A113A220A128A11F3
:0801B8002F280A128A111228F7
:10020000FE00FE1F082983137E18831700080800CC
:100210000408FE0001308A007E08820700347E3424
:1002200030346D34793433345B345F3470347F343C
:100230007B340B1D1C291D29892964308100781C01
:100240002229232988290130A4002408FA077718D5
:100250002A292B29512988170A30AD000030AE0019
:100260007908A400A5012408AB002508AC000A12F7
:100270008A1194210A128A11831203132B08A600F3
:100280002608FB000A30AB007B080A128A117D2287
:100290000A128A11831203137902A4002408FB00B6
:1002A0006C290A30AD000030AE007908A400A50129
:1002B0002408AB002508AC000A128A1194210A1206
:1002C0008A11831203132B08A6002608FB00FB08E3
:1002D000031D6B296C2908177B08013E0A128A113D
:1002E00009210A128A1186007A08053A031D792924
:1002F0007A2988290310003003180130FA000130F0
:10030000F706031000300318013086008813081325
:100310000B112A08FE0029088A00280884002708F3
:100320008300FF0E7F0E0900031000300318013018
:10033000B000AE1F9C299D29A529AD09AE09AD0AC3
:100340000319AE0AB0010314B00DAC1FA829A929E6
:10035000B229AB09AC09AB0A0319AC0A0130B300EE
:100360003308B0060030B1000030B2002E082D0472
:100370000319BB29BC29F729AF010314AF0DCB2901
:1003800001300310AD0DAE0DFF3E031DC12901303C
:10039000B3003308AF07AE1FCE29CF29C0290130E3
:1003A0000310B10DB20DFF3E031DD0292E082C0203
:1003B000031DDC292D082B02031CDF29E029EA2973
:1003C0002D08AB022E08031CAC03AC020130B104B3
:1003D0000030B20401300310AE0CAD0CFF3E031D23
:1003E000EB290130AF02031DF629F729CF29B00808
:1003F000031DFB29002AB109B209B10A0319B20A87
:100400003108AB01AB073208AC01AC07072A080082
:10041000A20021088313831203178D008312031394
:100420002208831203178C00831603178C130C15F4
:10043000831203138B1F1D2A1E2A202AF7148B13E5
:100440005530831603178D00AA308D008C14282A8E
:10045000831203130D1E2D2A2E2A282A8316031712
:100460000C11831203130D12F71C372A382A392A6C
:100470008B17080003100030031801308600881322
:1004800008130310003003180130A10079080A1284
:100490008A1108220A128A11FA300A128A11992244
:1004A0000A128A11FA300A128A1199220A128A1142
:1004B000831203137814080003108316031300300B
:1004C0000318013085000310003003180130860046
:1004D000031000300318013087003C3088000310FF
:1004E0000030031801308900C4308100A03083122D
:1004F00003138B00643081000800AC00031000304F
:1005000003180130AD002C1C862A872A8C2A2B0860
:100510008313AE002E08AD070310AB0D0310AC0C17
:10052000AC08031D942A952A832A2D088313982A40
:10053000080083120313A1000430A200FA30A300C4
:10054000A22AA22A0130A302031DA72AA82AA12AAF
:100550000130A202031DAD2AAE2A9E2A0130A1025B
:10056000031DB32AB42A9C2A0800A2002208831380
:10057000831203178D00831603178C130C14831238
:1005800003170C0883120313A3002308C72A0800CB
:1005900000300A128A11B5220A128A11831203133B
:0805A000A1002108F900080088
:02400E00323F3F
:00000001FF
