:060000000A128A11452FCF
:100E8A00F001F101F201F301F401F50183010A1203
:100E9A008A116F2F2F3083160313850007308900BC
:100EAA000F3086000310003003180130870003104A
:100EBA000030031801308800031000300318013095
:100ECA00831203138B0089309F008E30831603131D
:100EDA009F0008000A128A114F270A128A11143039
:100EEA00F9000130F902031D7B2F7C2F762F831224
:100EFA0003131F151F19822F832F7F2F1E08F60039
:100F0A00F7010830F8000310F60DF70DF80B882FDB
:100F1A00831603131E087607F40077080318770A66
:100F2A00F5000030750281300319740203189E2FF0
:100F3A009F2FA42F0130831203138800742F0130CE
:100F4A0075020130031974020318AC2FAD2FB22FAA
:100F5A000230831203138800742F01307502813026
:100F6A00031974020318BA2FBB2FC02F043083123F
:100F7A0003138800742F02307502013003197402BA
:100F8A000318C82FC92FCE2F0830831203138800E5
:100F9A00742F023075028130031974020318D62F98
:100FAA00D72FDC2F1030831203138800742F0330DD
:100FBA0075020130031974020318E42FE52FEA2F92
:100FCA002030831203138800742F03307502813096
:100FDA00031974020318F22FF32FF82F40308312EB
:100FEA0003138800742F8030831203138800742F30
:060FFA000A128A11002812
:02400E00323F3F
:00000001FF
