:0600000000308A00102808
:10000800FF000308F3000408F4000A08F5007E085E
:10001800F6000A128A11482883177D3084007E3042
:100028000A128A111D200A128A1183010A128A11E2
:10003800252864008001840A040603190034040694
:100048001E280A128A116D200A128A11C830F0007F
:100058002E282E280130F002031D332834282D289D
:10006800831203138914C830F1003B283B28013060
:10007800F102031D402841283A28831203138910EE
:100088002A280A128A111028831203130B1D4D28DF
:100098004E286228643081000130F2007208FD07A2
:1000A800FA307D02031C59285A2861280130880635
:1000B8000310003003180130FD000B117608FE0014
:1000C80075088A007408840073088300FF0E7F0E89
:1000D800090003108316031300300318013085004C
:1000E8000310003003180130860003100030031895
:1000F8000130870003100030031801308800031016
:100108000030031801308900C4308100A030831208
:0A01180003138B006430810008001F
:02400E00323F3F
:00000001FF
