:060000000A128A11C52B53
:10078A00F001F101F201F301F401F50183010A120A
:10079A008A110F2FF80083120313081178080A121E
:1007AA008A11BE240A128A110800F8008312031360
:1007BA00081578080A128A11BE240A128A1108003A
:1007CA0001300A128A11CF230A128A1103300A123F
:1007DA008A11DD240A128A1108008312031388156C
:1007EA00F6010314F60D0130F602031DFD2BFE2B54
:1007FA00F82B88110800FE00FE1F082C83137E18B0
:10080A008317000808000408FE0004308A007E08E6
:10081A0082070034543465346E34733469346F3467
:10082A006E34653420343A340034563461346C34CE
:10083A006F34723465342034413444343A340034E9
:10084A00563420342034203400342E34003400301E
:10085A00F6000030F70083120313201C352C362CC7
:10086A003C2C2208F6070318F70A2308F707013079
:10087A000310A20DA30DFF3E031D3D2C01300310F2
:10088A00A10CA00CFF3E031D442C21082004031DCB
:10089A004F2C502C302C7708A101A1077608A00113
:1008AA00A0070800F700F71F5B2C5C2C602C831252
:1008BA0003138817632C831203138813771F662C7C
:1008CA00672C692C08176A2C0813F71E6D2C6E2CDE
:1008DA00702C8816712C8812771E742C752C772C24
:1008EA000816782C08120A128A11F2230A128A119F
:1008FA000800F900831203130815922C79080A12CA
:10090A008A1109240A128A110A128A11BE240A12A9
:10091A008A110130F8007808F90779080A128A1151
:10092A0009240A128A110038031D9C2C9D2C832C41
:10093A0008002F30831603138500073089000F3013
:10094A0086000310003003180130870003100030BE
:10095A000318013088000310003003180130831295
:10096A0003138B0089309F008E30831603139F0078
:10097A00080083120313A10021080A128A115724BE
:10098A000A128A1183120313A10EF030A10521085D
:10099A000A128A1157240A128A1132308312031357
:1009AA00A0000130A002031DDB2CDC2CD62C080091
:1009BA00F6000430F800FA30F7000130F702031DA0
:1009CA00E72CE82CE22C0130F802031DED2CEE2C6A
:1009DA00E02C0130F602031DF32CF42CDE2C080067
:1009F200F9001B2D7A087F3E0A128A11CF230A12B0
:100A02008A11292D7A08BF3E0A128A11CF230A12AF
:100A12008A11292D7A088F3E0A128A11CF230A12CF
:100A22008A11292D7A08CF3E0A128A11CF230A127F
:100A32008A11292D7908013A0319FB2C033A03196B
:100A4200032D013A03190B2D073A0319132D292DF2
:100A52000800003083120313A0000030A100260812
:100A620025040319352D362D6E2DA2010314A20D76
:100A7200452D01300310A50DA60DFF3E031D3B2D94
:100A82000130F6007608A207A61F482D492D3A2DFF
:100A920001300310A00DA10DFF3E031D4A2D2608B3
:100AA2002402031D562D25082302031C592D5A2DFD
:100AB200612D2508A3022608031CA403A402201406
:100AC20001300310A60CA50CFF3E031D622D013060
:100AD200A202031D6D2D6E2D492D2108A401A4072C
:100AE2002008A301A3070800831203132708260482
:100AF2002504240403197E2D7F2DC32DF701031431
:100B0200F70D902D0130F6000310A40DA50DA60DD2
:100B1200A70DF60B852D0130F6007608F707A71F03
:100B2200932D942D832D27082302031DA22D260821
:100B32002202031DA22D25082102031DA22D240835
:100B42002002031CA52DA62DB42D2408A0022508E1
:100B5200031C250FA1022608031C260FA202270848
:100B6200031C270FA30201300310A70CA60CA50C2F
:100B7200A40CFF3E031DB52D0130F702031DC22D4B
:100B8200C32D942D080083120313081132300A1268
:100B92008A11DD240A128A11831203130816881699
:100BA200081388130A128A11F2230A128A110630D4
:100BB2000A128A11DD240A128A110A128A11F223F8
:100BC2000A128A119630FA000130FA02031DEA2D48
:100BD200EB2DE52D0A128A11F2230A128A11063030
:100BE2000A128A11DD240A128A11831203130812CF
:100BF2000A128A11F2230A128A116430F9000130B2
:100C0200F902031D052E062E002E28300A128A1123
:100C1200BE240A128A1108300A128A11BE240A124C
:100C22008A1100300A128A11BE240A128A110C306B
:100C32000A128A11BE240A128A1106300A128A1175
:100C4200BE240A128A110800003083120313A30083
:100C52000030A2000030A1000030A0002C082B04BC
:100C62002A0429040319362E372E852EA4010314D3
:100C7200A40D482E0130F6000310A90DAA0DAB0DEC
:100C8200AC0DF60B3D2E0130F6007608A407AC1F22
:100C92004B2E4C2E3B2E0130F6000310A00DA10D61
:100CA200A20DA30DF60B4E2E2C082802031D632E57
:100CB2002B082702031D632E2A082602031D632E1A
:100CC20029082502031C662E672E762E2908A50206
:100CD2002A08031C2A0FA6022B08031C2B0FA702AB
:100CE2002C08031C2C0FA802201401300310AC0C9A
:100CF200AB0CAA0CA90CFF3E031D772E0130A402F7
:100D0200031D842E852E4C2E2308A8002208A7003E
:100D12002108A6002008A5000800031000300318CF
:100D2200013083120313AD000430B100AC2E103039
:100D3200AE002730AF00BA2EE830AE000330AF006D
:100D4200BA2E6430AE000030AF00BA2E0A30AE00C8
:100D52000030AF00BA2E3108013A0319A72E033A28
:100D62000319A22E013A03199D2E073A0319982E50
:100D7200BA2E3308A401A4073208A301A3072F083F
:100D8200A601A6072E08A501A5070A128A112A257F
:100D92000A128A118313831203132308B000AD08C9
:100DA200031DD42ED52ED92E3008031DD92EE52EA3
:100DB2003008303E0A128A11DA230A128A1183128B
:100DC2000313AD010314AD0D3008F900FA017908DF
:100DD200A0007A08A1002F08A301A3072E08A201F0
:100DE200A2070A128A112C240A128A11831383126F
:100DF20003132008B2022108031CB303B30201301B
:100E0200B102B108031D062F072FAC2E3208303E67
:100E12000A128A11DA230A128A1108000A128A11A6
:100E22009E240A128A118312031387140A128A114A
:100E3200C4250A128A1164300A128A11DD240A12A8
:100E42008A110A128A11E5230A128A11FA0103147D
:100E5200FA0D01300A128A11F9240A128A110C3091
:100E62000A128A117E240A128A11FA010314FA0D57
:100E720002300A128A11F9240A128A1101300A1266
:100E82008A117E240A128A11143083120313B700C6
:100E92000130B702031D4E2F4F2F492F1F151F1967
:100EA200532F542F502F1E08B400B5010830B6003E
:100EB2000310B40DB50DB60B592F831603131E087C
:100EC200831203133407F40035080318350AF500BA
:100ED2000B30FA0001300A128A11F9240A128A111F
:100EE200750883120313B301B3077408B201B20782
:100EF2000A128A118E260A128A1118300A128A11CF
:100F02007E240A128A11750883120313A101A10714
:100F12007408A001A0070530A2000030A3000A1245
:100F22008A112C240A128A118313831203132008B4
:100F3200F0002108F100F201F3010B30FA00023057
:100F42000A128A11F9240A128A11730883120313EE
:100F5200A8007208A7007108A6007008A50000305A
:100F6200AC000030AB000330AA00E830A9000A123E
:100F72008A1125260A128A11831383120313260863
:100F8200B301B3072508B201B2070A128A118E26ED
:100F92000A128A111C300A128A117E240A128A113C
:100FA200730883120313A3007208A2007108A10040
:100FB2007008A0000030A7000030A6000330A50092
:100FC200E830A4000A128A1175250A128A118313C5
:100FD200831203132108B301B3072008B201B20739
:100FE2000A128A118E260A128A1117300A128A11DF
:0E0FF2007E240A128A11452F0A128A11002845
:02400E00323F3F
:00000001FF
