:0600000000308A00122806
:10000800FF00030883120313A7000408A8000A08C6
:10001800A9007E08AA000A128A111A297A308400D7
:100028000130FE001930FF0023208000840A0408F4
:100038007B3A03192728FF0A0319FE0A18287E08A5
:100048008A007F08820083177B3084007E300A1282
:100058008A1134200A128A1183010A128A113C2853
:1000680064008001840A0406031900340406352854
:100078000A128A1105220A128A1183120313881A96
:1000880046284728622864300A128A1142220A1236
:100098008A1183120313881A5228532862280130C0
:1000A800A0002008FA0764307A02031C5C285D2847
:1000B80062280310003003180130FA00081A652876
:1000C80066287E2864300A128A1142220A128A118E
:1000D80083120313081A712872287E28FA08031D50
:1000E800762877287C286330A0002008FA007E282C
:0C00F8000130FA0241280A128A11122875
:10020000FE00FE1F082983137E18831700080800CC
:100210000408FE0001308A007E08820700347E3424
:1002200030346D34793433345B345F3470347F343C
:100230007B344D340B1D1D291E2986296430810015
:100240000130A4002408FB077D18272928294E29FE
:1002500088170A30AD000030AE007A08A400A5016E
:100260002408AB002508AC000A128A1191210A1259
:100270008A11831203132B08A6002608FC000A30FB
:10028000AB007C080A128A1126220A128A118312F4
:1002900003137A02A4002408FC0069290A30AD0087
:1002A0000030AE007A08A400A5012408AB002508A0
:1002B000AC000A128A1191210A128A1183120313C7
:1002C0002B08A6002608FC00FC08031D68296929E4
:1002D00008177C08013E0A128A1109210A128A11A4
:1002E00086007B08053A031D7629772985290310A6
:1002F000003003180130FB000130FD060310003010
:10030000031801308600881308130B112A08FE0019
:1003100029088A002808840027088300FF0E7F0E22
:1003200009000310003003180130AF00AE1F9929F7
:100330009A29A229AD09AE09AD0A0319AE0AAF0187
:100340000314AF0DAC1FA529A629AF29AB09AC0931
:10035000AB0A0319AC0A0130B3003308AF06003012
:10036000B1000030B2002E082D040319B829B929B4
:10037000F429B0010314B00DC82901300310AD0DEC
:10038000AE0DFF3E031DBE290130B3003308B00798
:10039000AE1FCB29CC29BD2901300310B10DB20D00
:1003A000FF3E031DCD292E082C02031DD9292D083F
:1003B0002B02031CDC29DD29E7292D08AB022E08BE
:1003C000031CAC03AC020130B1040030B2040130B4
:1003D0000310AE0CAD0CFF3E031DE8290130B00246
:1003E000031DF329F429CC29AF08031DF829FD29A1
:1003F000B109B209B10A0319B20A3108AB01AB075E
:100400003208AC01AC07042A08000310831603135A
:10041000003003180130850003100030031801304C
:100420008600031000300318013087003030880048
:1004300003100030031801308900C4308100A0305F
:10044000831203138B00643081000800AC0003109A
:10045000003003180130AD002C1C2F2A302A352A19
:100460002B088313AE002E08AD070310AB0D03104D
:10047000AC0CAC08031D3D2A3E2A2C2A2D08831300
:10048000412A0800A1000430A200FA30A300492A42
:10049000492A0130A302031D4E2A4F2A482A01305F
:1004A000A202031D542A552A452A0130A102031D28
:0804B0005A2A5B2A432A0800C6
:02400E00323F3F
:00000001FF
