:100000000A128A1103280A128A11DA270A128A119F
:100010000A128A111D270A128A1164300A128A11E3
:100020009F260A128A110A128A1180260A128A1140
:10003000F0010314F00D01300A128A1182270A120E
:100040008A1109300A128A11B9260A128A11F0019E
:100050000314F00D02300A128A1182270A128A1143
:1000600001300A128A11B9260A128A1136280A1298
:040070008A110028C9
:100CEA00F20083120313081172080A128A11B32739
:100CFA000A128A11080001300A128A1175260A128C
:100D0A008A1103300A128A119F260A128A110800D0
:100D1A00831203138815F6010314F60D952E952EEA
:100D2A000130F602031D9A2E9B2E942E8312031372
:100D3A0088110800F5000430F600FA30F700A62EF4
:100D4A00A62E0130F702031DAB2EAC2EA52E0130C4
:100D5A00F602031DB12EB22EA22E0130F502031D9A
:100D6A00B72EB82EA02E0800F00083120313081520
:100D7A00CD2E70080A128A1109270A128A110A123C
:100D8A008A11B3270A128A110130F1007108F0079B
:100D9A0070080A128A1109270A128A110038031DDB
:100DAA00D72ED82EBE2E0800F500F51FDD2EDE2E1A
:100DBA00E22E831203138817E52E83120313881376
:100DCA00751FE82EE92EEB2E0817EC2E0813F51ED8
:100DDA00EF2EF02EF22E8816F32E8812751EF62E9E
:100DEA00F72EF92E0816FA2E08120A128A118D26E3
:100DFA000A128A110800FE00FE1F082F83137E18AC
:100E0A008317000808000408FE0007308A007E08DD
:100E1A008207003457344F3452344C34443420342B
:100E2A0021340034483445344C344C344F34003483
:100E3A0083120313081132300A128A119F260A12EA
:100E4A008A118312031308168816081388130A12C4
:100E5A008A118D260A128A1106300A128A119F26D1
:100E6A000A128A110A128A118D260A128A119630DA
:100E7A00F000402F402F0130F002031D452F462F6E
:100E8A003F2F0A128A118D260A128A1106300A1277
:100E9A008A119F260A128A118312031308120A1250
:100EAA008A118D260A128A116430F1005D2F5D2F96
:100EBA000130F102031D622F632F5C2F28300A12C2
:100ECA008A11B3270A128A1108300A128A11B32723
:100EDA000A128A1100300A128A11B3270A128A11D9
:100EEA000F300A128A11B3270A128A1106300A121F
:100EFA008A11B3270A128A110800F100A42F700878
:100F0A007F3E0A128A1175260A128A11B22F7008B8
:100F1A00BF3E0A128A1175260A128A11B22F700868
:100F2A008F3E0A128A1175260A128A11B22F700888
:100F3A00CF3E0A128A1175260A128A11B22F710837
:100F4A00013A0319842F033A03198C2F013A031922
:100F5A00942F073A03199C2FB22F0800F300730845
:100F6A000A128A11D9260A128A11F30EF030F305F1
:100F7A0073080A128A11D9260A128A113230F40029
:100F8A00C72FC72F0130F402031DCC2FCD2FC62F38
:100F9A0083120313081DD22FD32FD92F32300A12EE
:100FAA008A119F260A128A11080003108316031356
:100FBA0000300318013085000F308600031000301E
:100FCA00031801308700031000300318013088002D
:100FDA000310003003180130890003108312031331
:0A0FEA000030031801308B000800EE
:02400E00323F3F
:00000001FF
