:100000000A128A1103280A128A1123260A128A1157
:100010000A128A118D270A128A1183120313A10171
:100020000314A10D1030A00003100030031801309C
:10003000B3000E30A6002608B2001F30A700270824
:10004000B1001830A8002808B0001F30A900290806
:10005000AF001D30AA002A08AE000E30AB002B08FE
:10006000AD000310003003180130AC0000300A125C
:100070008A111F270A128A110310831203130030FA
:1000800003180130B3000E30A6002608B2001F305E
:10009000A7002708B1000330A8002808B0001F30CF
:1000A000A9002908AF001730AA002A08AE000E30B8
:1000B000AB002B08AD000310003003180130AC007A
:1000C00001300A128A111F270A128A1103108312A3
:1000D0000313003003180130B3000310003003187D
:1000E0000130B2000310003003180130B1000630B7
:1000F000A6002608B0000630A7002708AF000310AE
:10010000003003180130AE00031000300318013036
:10011000AD000310003003180130AC0002300A12A9
:100120008A111F270A128A11031083120313003049
:1001300003180130B3001530A6002608B2001F30A6
:10014000A7002708B1001F30A8002808B0001F3002
:10015000A9002908AF001530AA002A08AE001F30F8
:10016000AB002B08AD000E30AC0003300A128A1130
:100170001F270A128A110A128A11EA250A128A1105
:10018000031083120313003003180130A200C828A3
:100190000A128A11EA250A128A118312031321080E
:1001A0008313AC0001300A128A11CE260A128A117A
:1001B00000300A128A11DE250A128A1183120313F3
:1001C00021088313013EA40011302402031CE928F6
:1001D000EA28EB28FD2802300A128A11DE250A12CD
:1001E0008A11013083120313A6002608A4071130D8
:1001F0002402031CFC28FD28EB28AC010314AC0DE1
:1002000002300A128A11CE260A128A1183120313AF
:10021000A5010314A50D182902300A128A11DE2542
:100220000A128A11013083120313A6002608A507BB
:10023000200883132502031C1E291F290C290130C5
:100240000A128A11DE250A128A1101308312031361
:10025000A6002608A1070130A0020A128A1143262F
:100260000A128A1196300A128A1107260A128A1176
:10027000013083120313A6002608A20710302202C1
:10028000031C43294429C828A1010314A10D1030DF
:10029000A0000A128A11EA250A128A1164300A1291
:1002A0008A1107260A128A1101300A128A1165265C
:1002B0000A128A11C8300A128A1107260A128A11F4
:1002C000C8300A128A1107260A128A11C8300A1287
:1002D0008A1107260A128A11C8300A128A110726C3
:1002E0000A128A1183120313AC010314AC0D0230FD
:1002F0000A128A11CE260A128A11031083120313DE
:10030000003003180130A300852923088313AC00B3
:1003100002300A128A11CE260A128A1120300A12DD
:100320008A11DE250A128A1183120313230883130C
:10033000013EAC0002300A128A11CE260A128A113E
:1003400003300A128A11DE250A128A1164300A1259
:100350008A1107260A128A11013083120313A6009C
:100360002608A30711302302031CB729B8298529C1
:10037000C8300A128A1107260A128A11C8300A12D6
:100380008A1107260A128A11C8300A128A11072612
:100390000A128A11C8300A128A1107260A128A1113
:1003A000C8300A128A1107260A128A11C8300A12A6
:1003B0008A1107260A128A11C0280A128A110028F7
:100BA40083120313B6000811360883130A128A113C
:100BB400AB260A128A11080083120313B600081523
:100BC400360883130A128A11AB260A128A11080006
:100BD40001300A128A11D2250A128A1103300A122C
:100BE4008A1107260A128A11080083120313881532
:100BF400BA010314BA0DFF2DFF2D0130BA02031DF3
:100C0400042E052EFE2D8811080083120313B6004E
:100C14000430B700FA30B800102E102E0130B8029C
:100C2400031D152E162E0F2E0130B702031D1B2E89
:100C34001C2E0C2E0130B602031D212E222E0A2E4C
:100C440008000310831603130030031801308500D5
:100C54000F308600031000300318013087000310A2
:100C640000300318013088000310003003180130ED
:100C740089000310831203130030031801308B0022
:100C840008001430AC005C2E5030AD004A2E4A2EC1
:100C94000130AD02031D4F2E502E492E89145030C1
:100CA400AE00552E552E0130AE02031D5A2E5B2E7A
:100CB400542E89100130AC022C08FF3A031D632E18
:100CC400642E462E080083120313AC0008157B2EF5
:100CD4002C080A128A1109270A128A110A128A1187
:100CE400AB260A128A11013083120313AD002D08BA
:100CF400AC072C0883130A128A1109270A128A11D5
:100D04000038031D862E872E6A2E0800B900B91FED
:100D14008C2E8D2E8F2E8817902E8813391F932E8C
:100D2400942E962E0817972E0813B91E9A2E9B2ED2
:100D34009D2E88169E2E8812391EA12EA22EA42E18
:100D44000816A52E08120A128A11F7250A128A110A
:100D5400080083120313B700370883130A128A1199
:100D640088260A128A1183120313B70EF030B705CE
:100D7400370883130A128A1188260A128A1132301C
:100D840083120313B800C72EC72E0130B802031D07
:100D9400CC2ECD2EC62E0800AD00F02E2C087F3EA2
:100DA4000A128A11D2250A128A11FF2E2C08BF3E7C
:100DB4000A128A11D2250A128A11FF2E2C088F3E9C
:100DC4000A128A11D2250A128A11FF2E2C08CF3E4C
:100DD4000A128A11D2250A128A11FF2E2D088313B2
:100DE400013A0319D02E033A0319D82E013A0319F4
:100DF400E02E073A0319E82EFF2E0800FE00FE1F1E
:100E0400082F83137E188317000808000408FE00C7
:100E140007308A007E088207003453344534543442
:100E240054344F34523445345A34453452344F34A4
:100E34002E3443344F344D340034B40008300A1295
:100E44008A11D2250A128A110A128A11EA250A1273
:100E54008A118312031334088313B500023003107C
:100E6400B50DFF3E031D312F0310350D403E0A1210
:100E74008A11D2250A128A11831203132C088313B0
:100E84000A128A11DE250A128A11831203132D080D
:100E940083130A128A11DE250A128A11831203139C
:100EA4002E0883130A128A11DE250A128A1183126C
:100EB40003132F0883130A128A11DE250A128A11DA
:100EC40083120313300883130A128A11DE250A12CF
:100ED4008A1183120313310883130A128A11DE253F
:100EE4000A128A1183120313320883130A128A1115
:100EF400DE250A128A1183120313330883130A129C
:100F04008A11DE250A128A110C300A128A11D2259E
:100F14000A128A11080083120313081132300A12CC
:100F24008A1107260A128A118312031308168816D7
:100F3400081388130A128A11F7250A128A11063037
:100F44000A128A1107260A128A110A128A11F7252F
:100F54000A128A11963083120313AC00B22FB22FF7
:100F64000130AC02031DB72FB82FB12F0A128A111A
:100F7400F7250A128A1106300A128A1107260A1264
:100F84008A118312031308120A128A11F7250A120E
:100F94008A11643083120313AD00D12FD12F013095
:100FA400AD02031DD62FD72FD02F28300A128A1155
:100FB400AB260A128A1108300A128A11AB260A12C9
:100FC4008A1100300A128A11AB260A128A110C30D7
:100FD4000A128A11AB260A128A1106300A128A11E1
:080FE400AB260A128A11080075
:02400E00323F3F
:00000001FF
