:100000000A128A1103280A128A1145260A128A1135
:100010000A128A118D270A128A1103108312031300
:10002000003003180130B0001030A2002208AF00E9
:100030001830A3002308AE001C30A4002408AD0033
:100040001E30A5002508AC001C30A6002608AB0019
:100050001830A7002708AA001030A90000300A12A3
:100060008A111F270A128A1103108312031300300A
:1000700003180130B0000310003003180130AF0046
:100080001F30A2002208AE001F30A3002308AD00DD
:100090001F30A4002408AC001F30A5002508AB00C9
:1000A0001F30A6002608AA000310003003180130F4
:1000B000A90001300A128A111F270A128A1103109F
:1000C00083120313003003180130B0000310003016
:1000D00003180130AF000430A2002208AE000E3039
:1000E000A3002308AD001F30A4002408AC001F307B
:1000F000A5002508AB000A30A6002608AA000310B8
:10010000003003180130A90002300A128A111F279B
:100110000A128A111B3083120313A2002208B000B6
:100120000A30A3002308AF001F30A4002408AE004B
:100130001F30A5002508AD001530A6002608AC002C
:100140001F30A7002708AB000A30A8002808AA0023
:100150001130A90003300A128A111F270A128A11CE
:10016000031083120313003003180130B000043071
:10017000A2002208AF001130A3002308AE000E3009
:10018000A4002408AD001F30A5002508AC000E30E7
:10019000A6002608AB001130A7002708AA000430EB
:1001A000A90004300A128A111F270A128A110310AB
:1001B00083120313003003180130B0000E30A20088
:1001C0002208AF000310003003180130AE000E30DB
:1001D000A3002308AD001F30A4002408AC00153094
:1001E000A5002508AB001F30A6002608AA000E3087
:1001F000A90005300A128A111F270A128A1103105A
:1002000083120313003003180130B00003100030D4
:1002100003180130AF000E30A2002208AE001130EA
:10022000A3002308AD000310003003180130AC0018
:100230000A30A4002408AB000A30A5002508AA0053
:100240000310003003180130A90006300A128A1189
:100250001F270A128A110310831203130030031898
:100260000130B0000310003003180130AF0011302E
:10027000A2002208AE000E30A3002308AD00031038
:10028000003003180130AC000A30A4002408AB0091
:100290000A30A5002508AA00031000300318013019
:1002A000A90007300A128A111F270A128A110A129E
:1002B0008A110C260A128A11003083120313A0003F
:1002C0000030A1006329200883130A128A11F6273F
:1002D0000A128A11831203130130A0070318A10A1E
:1002E0000030A1072108803AA20080302202031DBD
:1002F0007B2908302002031C7E297F296329A9015C
:100300000314A90D02300A128A11CE260A128A118C
:1003100001300A128A1165260A128A118E290A12E0
:040320008A11002816
:100C000083120313B3000811330883130A128A11E5
:100C1000AB260A128A11080001300A128A11002636
:100C20000A128A1103300A128A1129260A128A111D
:100C30000800831203138815B7010314B70D212E82
:100C4000212E0130B702031D262E272E202E8811BB
:100C5000080083120313B3000430B400FA30B50067
:100C6000322E322E0130B502031D372E382E312E92
:100C70000130B402031D3D2E3E2E2E2E0130B30254
:100C8000031D432E442E2C2E08000310831603133D
:100C900000300318013085000F308600031000304B
:100CA000031801308700031000300318013088005A
:100CB000031000300318013089000310831203135E
:100CC0000030031801308B00080083120313A900C1
:100CD00008157B2E29080A128A1109270A128A117F
:100CE0000A128A11AB260A128A11013083120313E9
:100CF000AA002A08A907290883130A128A110927BA
:100D00000A128A110038031D862E872E6A2E0800CB
:100D1000B600B61F8C2E8D2E8F2E8817902E88131E
:100D2000361F932E942E962E0817972E0813B61E54
:100D30009A2E9B2E9D2E88169E2E8812361EA12E30
:100D4000A22EA42E0816A52E08120A128A11192600
:100D50000A128A11080083120313B40034088313A3
:100D60000A128A1188260A128A1183120313B40EFA
:100D7000F030B405340883130A128A1188260A1247
:100D80008A11323083120313B500C72EC72E0130EB
:100D9000B502031DCC2ECD2EC62E0800AA00F02EC3
:100DA00029087F3E0A128A1100260A128A11FF2E94
:100DB0002908BF3E0A128A1100260A128A11FF2E44
:100DC00029088F3E0A128A1100260A128A11FF2E64
:100DD0002908CF3E0A128A1100260A128A11FF2E14
:100DE0002A088313013A0319D02E033A0319D82E87
:100DF000013A0319E02E073A0319E82EFF2E0800E6
:100E0000FE00FE1F082F83137E18831700080800BA
:100E10000408FE0007308A007E088207003453343D
:100E20004534543454344F34523445345A344534B0
:100E300052344F342E3443344F344D340034B100E7
:100E400008300A128A1100260A128A110A128A111F
:100E50000C260A128A118312031331088313B2007D
:100E600002300310B20DFF3E031D312F0310320D6F
:100E7000403E0A128A1100260A128A1183120313B5
:100E8000290883130A128A11F6270A128A1183127B
:100E900003132A0883130A128A11F6270A128A11E9
:100EA000831203132B0883130A128A11F6270A12DE
:100EB0008A11831203132C0883130A128A11F6274E
:100EC0000A128A11831203132D0883130A128A113E
:100ED000F6270A128A11831203132E0883130A12AB
:100EE0008A11F6270A128A11831203132F0883131B
:100EF0000A128A11F6270A128A1183120313300884
:100F000083130A128A11F6270A128A110C300A1268
:100F10008A1100260A128A1108008312031308118D
:100F200032300A128A1129260A128A1183120313F7
:100F300008168816081388130A128A1119260A122D
:100F40008A1106300A128A1129260A128A110A12F7
:100F50008A1119260A128A11963083120313A900E6
:100F6000B22FB22F0130A902031DB72FB82FB12F16
:100F70000A128A1119260A128A1106300A128A11D7
:100F800029260A128A118312031308120A128A11DF
:100F900019260A128A11643083120313AA00D12F72
:100FA000D12F0130AA02031DD62FD72FD02F2830E2
:100FB0000A128A11AB260A128A1108300A128A1103
:100FC000AB260A128A1100300A128A11AB260A12C5
:100FD0008A110C300A128A11AB260A128A110630C5
:100FE0000A128A11AB260A128A110800B3000815EA
:0E0FF00033080A128A11AB260A128A11080071
:02400E00323F3F
:00000001FF
