:060000000A128A11122809
:10000800FF00030883120313BC000408BD000A089C
:10001800BE007E08BF000A128A11002F0A128A1138
:10002800A62F0A128A1588260A128A110A128A111C
:1000380039260A128A1164300A128A1550260A12C1
:100048008A110A128A1535260A128A118312031395
:10005800A2010314A20D01300A128A153D270A12C3
:100068008A1101300A128A1568260A128A110A3082
:1000780083120313A20001300A128A153D270A12BF
:100088008A11DF300A128A152A260A128A112D309F
:100098000A128A1568260A128A1183120313A2010A
:1000A8000314A20D02300A128A153D270A128A117A
:1000B80023300A128A1568260A128A110930831217
:1000C8000313A20002300A128A153D270A128A1168
:1000D8001F300A128A1568260A128A117010F01148
:1000E8007012F012F010103083120313C000273082
:1000F800C1000310003003180130C700081087142E
:1001080000300A128A11EA270A128A11FA0001300D
:100118000A128A11EA270A128A11F9007908831249
:100128000313C8007A08C900701C9B289C287B29E7
:10013800831203131E08B400B5010830B60003107B
:10014800B40DB50DB60BA328831603131E0883122E
:1001580003133407C40035080318350AC5004408DA
:10016800C2070318C30A4508C3070130B40034089E
:10017800C6074608133A031DC228C3287A2943082C
:10018800AA01AA074208A901A9071430AB00003048
:10019800AC000A128A115B270A128A118313831290
:1001A80003132A08F601F6072908F501F5070030B8
:1001B800C2000030C3000310003003180130C6002D
:1001C8000630A20001300A128A153D270A128A1148
:1001D800760883120313A301A3077508A201A207D7
:1001E8000530A4000030A5000A128A15D5260A1287
:1001F8008A118313831203132308AA01AA0722086A
:10020800A901A9070A30AB000030AC000A128A1114
:100218005B270A128A118313831203132A08B90170
:10022800B9072908B801B8073908B301B30738086E
:10023800B201B2070A128A1146250A128A112B3016
:100248000A128A1568260A128A117608831203137D
:10025800A301A3077508A201A2070530A400003076
:10026800A5000A128A15D5260A128A118313831249
:1002780003132308A701A7072208A601A6070A3027
:10028800A8000030A9000A128A15C1270A128A118B
:100298008313831203132708BB01BB072608BA017F
:1002A800BA073B08B301B3073A08B201B2070A120A
:1002B8008A1146250A128A11003076021430031971
:1002C80075020318682969297929093083120313EB
:1002D800A20001300A128A153D270A128A11183025
:1002E8000A128A1568260A128A11F01670108312EB
:1002F8000313861B802981299A2AF01E84298529BF
:100308009A2A46300A128A1550260A128A1183122E
:100318000313861B902991299A2AF01E942995295E
:100328009A2A861F9829992995290130B4003408FA
:10033800CA074A08033A031DA229A329A9290310B9
:10034800003003180130CA009A2A9A2A0330A20002
:1003580002300A128A153D270A128A1121300A1220
:100368008A1568260A128A11083083120313A2001C
:1003780002300A128A153D270A128A1118300A1209
:100388008A1568260A128A110B3083120313A200F9
:1003980002300A128A153D270A128A1121300A12E0
:1003A8008A1568260A128A11103083120313A200D4
:1003B80002300A128A153D270A128A1118300A12C9
:1003C8008A1568260A128A117012203083120313C4
:1003D800CD004E30CE00F01DF229F329A52A790868
:1003E8007A02031CF829F929FE294808F900490866
:1003F800FA00262A7A0849060319032A042A0F2A2A
:100408000310003003180130F2007A080A128A1526
:1004180076270A128A1179088312031348060319EA
:10042800162A172A202AF2010314F20D79080A1253
:100438008A1576270A128A11790883120313C800CD
:100448007A08C900F011A52A0330A20002300A1266
:100458008A153D270A128A1127300A128A1568263A
:100468000A128A11083083120313A20002300A12FA
:100478008A153D270A128A1129300A128A15682618
:100488000A128A117A0883120313B400B5013408DA
:10049800F7003508F800F0157016A52A0330A200F9
:1004A80002300A128A153D270A128A1121300A12CF
:1004B8008A1568260A128A11083083120313A200CB
:1004C80002300A128A153D270A128A1118300A12B8
:1004D8008A1568260A128A110B3083120313A200A8
:1004E80002300A128A153D270A128A1127300A1289
:1004F8008A1568260A128A11103083120313A20083
:1005080002300A128A153D270A128A1129300A1266
:100518008A1568260A128A11790883120313B4000F
:10052800B5013408F7003508F8004F2A4A08003AA0
:100538000319AA29013A0319282A033A0319522A46
:10054800A52A4A08031DA92A2F2B0D30A200013025
:100558000A128A153D270A128A111A300A128A15B8
:1005680068260A128A1183120313061BBC2ABD2AA5
:10057800FD2A46300A128A1550260A128A11831259
:100588000313061BC82AC92AFD2A2030CD004E3085
:10059800CE000130F7070318F80A0030F8075008B2
:1005A800B400B501B409B509B40A0319B50A340889
:1005B800C73EB60035080318013E003EB70078086C
:1005C8003702031DE92A770836020318EC2AED2AB8
:1005D800FD2A5008B400B501B409B509B40A0319D5
:1005E800B50A3408C73EF70035080318013E003E37
:1005F800F800861A002B012B242B46300A128A1584
:1006080050260A128A1183120313861A0C2B0D2BFB
:10061800242B2030CD004E30CE000130F7020030C0
:10062800031CF803F802003078020430031977023B
:1006380003181F2B202B242B0430F7000030F80060
:100648004A08013A031D292B2A2B2D2B7708FA007B
:100658002F2B7708F9007A08B400B5013408A200F6
:100668003508A3000530A4000030A5000A128A1539
:10067800D5260A128A118313831203132308AB01A8
:10068800AB072208AA01AA070A30AC000030AD0067
:100698000A128A11C7250A128A11831383120313B7
:1006A8002B08F801F8072A08F701F7070430A20019
:1006B80002300A128A153D270A128A110030780280
:1006C8000A300319770203186A2B6B2B712B183029
:1006D8000A128A1568260A128A11780883120313E7
:1006E800B301B3077708B201B2070A128A11462587
:1006F8000A128A112B300A128A1568260A128A11E0
:100708007A0883120313B400B5013408A20035082F
:10071800A3000530A4000030A5000A128A15D526CA
:100728000A128A118313831203132308A901A90744
:100738002208A801A8070A30AA000030AB000A1254
:100748008A119E260A128A11831383120313290819
:10075800BB01BB072808BA01BA073B08B301B307B6
:100768003A08B201B2070A128A1146250A128A11FA
:10077800790883120313B400B5013408A2003508C0
:10078800A3000530A4000030A5000A128A15D5265A
:100798000A128A118313831203132308AB01AB07D0
:1007A8002208AA01AA070A30AC000030AD000A12DC
:1007B8008A11C7250A128A118313831203132B087F
:1007C800F801F8072A08F701F7070C30A2000230F1
:1007D8000A128A153D270A128A11003078020A3057
:1007E800031977020318F92BFA2B002C18300A1278
:1007F8008A1568260A128A11780883120313B3012E
:10080800B3077708B201B2070A128A1146250A12FD
:100818008A112B300A128A1568260A128A11790859
:1008280083120313B400B5013408A2003508A300ED
:100838000530A4000030A5000A128A15D5260A1230
:100848008A118313831203132308A901A907220815
:10085800A801A8070A30AA000030AB000A128A11C2
:100868009E260A128A118313831203132908BB01D7
:10087800BB072808BA01BA073B08B301B3073A080F
:10088800B201B2070A128A1146250A128A11831286
:100898000313CA08031D512C522CD32CF01E552CBF
:1008A800562CD32C7908B400B50176083502031DFF
:1008B8005F2C750834020318622C632C852CF01801
:1008C800662C672C752C0D30A20001300A128A158F
:1008D8003D270A128A1110300A128A1568260A1250
:1008E8008A11831203134708023A03197C2C7D2CC2
:1008F800822C1030C0002730C10070110230C700B0
:10090800D32C7A08B400B50135087602031D8E2C65
:10091800340875020318912C922CB52CF018952CDC
:10092800962CA42C0D30A20001300A128A153D27FE
:100938000A128A110B300A128A1568260A128A11BD
:10094800831203134708013A0319AB2CAC2CB12CC2
:100958001030C0002730C1007011C7010314C70D43
:10096800D32C0D30A20001300A128A153D270A1235
:100978008A1115300A128A1568260A128A118312FA
:1009880003134708031DC92CCE2C1030C000273094
:10099800C10070110310003003180130C700701D2A
:1009A800D62CD72C2B2D1F2D7A08B400B50135086D
:1009B8007602031DE12C34087502031CE42CE52C97
:1009C8002A2D7908B400B50176083502031DEE2CEE
:1009D80075083402031CF12CF22C2A2D08102A2D3C
:1009E8005008B400B501B409B509B40A0319B50A29
:1009F8007A083407B60035080318350AB7003708EF
:100A08007602031D092D3608750203180C2D0D2DCD
:100A18002A2D08142A2D79085007B400B501B50D00
:100A280076083502031D1A2D7508340203181D2D8A
:100A38001E2D2A2D0D2D4708003A0319D82C013AEE
:100A48000319F42C033A03190F2D2A2D7011F01CE9
:100A58002E2D2F2D9828CA08031D332D342D9828A4
:100A68000D30A20001300A128A153D270A128A1198
:100A780015300A128A1568260A128A1198280A124D
:100A88008A1112280310003003180130831203134F
:100A9800AD000430B100642D1030AE002730AF0037
:100AA800722DE830AE000330AF00722D6430AE0016
:100AB8000030AF00722D0A30AE000030AF00722D4A
:100AC8003108013A03195F2D033A03195A2D013AE7
:100AD8000319552D073A0319502D722D3308AA0111
:100AE800AA073208A901A9072F08AC01AC072E08EC
:100AF800AB01AB070A128A115B270A128A1183130A
:100B0800831203132908B000AD08031D8C2D8D2D09
:100B1800912D3008031D912D9D2D3008303E0A126D
:100B28008A152A260A128A1183120313AD010314A7
:100B3800AD0D3008F300F4017308A2007408A30097
:100B48002F08A501A5072E08A401A4070A128A15D3
:100B5800D5260A128A118313831203132208B202BC
:100B68002308031CB303B3020130B102B108031D0B
:100B7800BE2DBF2D642D3208303E0A128A152A2652
:100B88000A128A110800031000300318013083127A
:100B98000313A700AD1FD12DD22DDA2DAC09AD0955
:100BA800AC0A0319AD0AA7010314A70DAB1FDD2D6D
:100BB800DE2DE72DAA09AB09AA0A0319AB0A0130F1
:100BC800F1007108A7060030A8000030A9002D0820
:100BD8002C040319F02DF12D292EA6010314A60DBE
:100BE800002E01300310AC0DAD0DFF3E031DF62D98
:100BF8000130F1007108A607AD1F032E042EF52D54
:100C080001300310A80DA90DFF3E031D052E2D0868
:100C18002B02031D112E2C082A02031C142E152E3C
:100C28001C2E2C08AA022D08031CAB03AB022814A7
:100C380001300310AD0CAC0CFF3E031D1D2E01301E
:100C4800A602031D282E292E042E2708031D2D2E4B
:100C5800322EA809A909A80A0319A90A2908AB016B
:100C6800AB072808AA01AA07080083120313081172
:100C780032300A128A1550260A128A118312031377
:100C880008168816081388130A128A1542260A12AB
:100C98008A1106300A128A1550260A128A110A1277
:100CA8008A1542260A128A11963083120313A3006A
:100CB8000130A302031D612E622E5C2E0A128A15D2
:100CC80042260A128A1106300A128A1550260A127A
:100CD8008A118312031308120A128A1542260A126D
:100CE8008A11643083120313A2000130A202031D8B
:100CF8007E2E7F2E792E28300A128A15A2270A12F4
:100D08008A1108300A128A15A2270A128A1100309D
:100D18000A128A15A2270A128A110C300A128A1599
:100D2800A2270A128A1106300A128A15A2270A1265
:100D38008A110800031000300318013083120313CE
:100D4800A600A91FA82EA92EB12EA809A909A80A8C
:100D58000319A90AA6010314A60DAB1FB42EB52EBC
:100D6800BA2EAA09AB09AA0A0319AB0A2B082A0446
:100D78000319BF2EC02EF02EA7010314A70DCF2EE6
:100D880001300310AA0DAB0DFF3E031DC52E013027
:100D9800F1007108A707AB1FD22ED32EC42E2B0843
:100DA8002902031DD92E2A082802031CDC2EDD2E59
:100DB800E32E2A08A8022B08031CA903A902013064
:100DC8000310AB0CAA0CFF3E031DE42E0130A70252
:100DD800031DEF2EF02ED32E2608031DF42EF92E18
:100DE800A809A909A80A0319A90A2908A901A9078C
:100DF8002808A801A80708000B1D032F042F4A2F55
:100E0800663081000130CF02CF08031D0C2F0D2F53
:100E1800102F1F15C830CF00701E132F142F2A2F24
:100E28000130CD020030031CCE03CE024E084D0423
:100E3800031D1F2F202F2A2F031000300318013005
:100E4800CA00F0114808F9004908FA000130CB023D
:100E58000030031CCC03CC024C084B04031D352F77
:100E6800362F3C2FF430CB000130CC000230F00696
:100E78000130C0020030031CC103C1024108400414
:100E8800031D472F482F492F70150B110C1F4D2F8D
:100E98004E2F502F70140C133F08FE003E088A0096
:100EA8003D0884003C088300FF0E7F0E09000030D7
:100EB80083120313A6000030A7002C082B04031983
:100EC800662F672F9F2FA8010314A80D762F0130D6
:100ED8000310AB0DAC0DFF3E031D6C2F0130F1006C
:100EE8007108A807AC1F792F7A2F6B2F01300310D8
:100EF800A60DA70DFF3E031D7B2F2C082A02031DFC
:100F0800872F2B082902031C8A2F8B2F922F2B083F
:100F1800A9022C08031CAA03AA02261401300310F4
:100F2800AC0CAB0CFF3E031D932F0130A802031D30
:100F38009E2F9F2F7A2F2708AA01AA072608A90102
:100F4800A9070800F001F501F601F701F801C00151
:100F5800C101C201C301C401C501C601C701C8015D
:100F6800C901CA010A128A151D260A128A11F90036
:100F78000A128A151E260A128A11FA000A128A1102
:100F8800F9270A128A11CB000A128A11FA270A12C3
:100F98008A11CC000A128A11FB270A128A11CD0085
:100FA8000A128A11FC270A128A11CE000A128A1123
:100FB800FD270A128A11CF000A128A11FE270A1287
:100FC8008A11D00083010A128A111528F1007108CC
:100FD800831203178D00831603178C130C148312C6
:100FE80003170C08F20072080800F43401342034A6
:060FF8004E34C834013440
:101C3A0019340F34F30083120313081173080A12BC
:101C4A008A15A2270A128A15080083120313A20012
:101C5A00081522080A128A15A2270A128A150800EC
:101C6A0001300A128A151F260A128A1503300A122F
:101C7A008A1550260A128A1508008312031388153A
:101C8A00F1010314F10D0130F102031D4D2E4E2E08
:101C9A00482E88110800F1000430F300FA30F200EF
:101CAA000130F202031D5A2E5B2E552E0130F3022B
:101CBA00031D602E612E532E0130F102031D662E84
:101CCA00672E512E0800F4008312031308157C2E88
:101CDA0074080A128A1509270A128A150A128A151D
:101CEA00A2270A128A150130F3007308F407740850
:101CFA000A128A1509270A128A150038031D862E28
:101D0A00872E6D2E08002F308316031385000730A7
:101D1A008900E03086000310003003180130870084
:101D2A000310003003180130880044308100A030CD
:101D3A00831203138B00831603130C176630831266
:101D4A000313810091309F008E30831603139F0086
:101D5A000800F200F21FB22EB32EB72E831203131D
:101D6A008817BA2E831203138813721FBD2EBE2E34
:101D7A00C02E0817C12E0813F21EC42EC52EC72E58
:101D8A008816C82E8812721ECB2ECC2ECE2E08167E
:101D9A00CF2E08120A128A1542260A128A1508003C
:101DAA00003083120313A0000030A100221CDE2E93
:101DBA00DF2EE52E2408A0070318A10A2508A1078B
:101DCA0001300310A40DA50DFF3E031DE62E0130C0
:101DDA000310A30CA20CFF3E031DED2E23082204C0
:101DEA00031DF82EF92EDB2E2108A301A3072008D4
:101DFA00A201A2070800FE00FE1F082F83137E1807
:101E0A008317000808000408FE000F308A007E08C5
:101E1A0082070034543465346D3470343A342D34C6
:101E2A002D342E342D3400344C344F34573420346E
:101E3A000034483449344734483400342034203498
:101E4A00203420340034533445345434203400349C
:101E5A00543448343A34003454344C343A34003428
:101E6A005B3400345D3400342E340034433400349F
:101E7A00F400672F8312031322087F3E0A128A1581
:101E8A001F260A128A15752F831203132208BF3ED2
:101E9A000A128A151F260A128A15752F831203132E
:101EAA0022088F3E0A128A151F260A128A15752FD2
:101EBA00831203132208CF3E0A128A151F260A121A
:101ECA008A15752F7408013A03193F2F033A03192B
:101EDA00492F013A0319532F073A03195D2F752F1A
:101EEA000800F1007208831203178D0071088C0034
:101EFA00831603178C130C15831203138B1F862F5B
:101F0A00872F892F70178B135530831603178D006F
:101F1A00AA308D008C14831203130D1E952F962F51
:101F2A00902F831603170C11831203130D12701FBF
:101F3A009F2FA02FA12F8B17080083120313A10034
:101F4A0021080A128A15AE260A128A158312031369
:101F5A00A10EF030A10521080A128A15AE260A122E
:101F6A008A15323083120313A0000130A002031D28
:101F7A00BF2FC02FBA2F0800831203132908280481
:101F8A000319C82FC92FF92FF2010314F20DD82F04
:101F9A0001300310A80DA90DFF3E031DCE2F0130FD
:101FAA00F1007108F207A91FDB2FDC2FCD2F2908BA
:101FBA002702031DE22F28082602031CE52FE62F1D
:101FCA00EC2F2808A6022908031CA703A702013040
:101FDA000310A90CA80CFF3E031DED2F0130F202DD
:101FEA00031DF82FF92FDC2F2708A701A7072608BA
:061FFA00A601A607080085
:02400E00323F3F
:104200001E0024000000000000000000000000006C
:00000001FF
