:060000000A128A11FC2F18
:100EA6008316031788018901831203131F10FF306D
:100EB600831603138500FF308600FF308700F0306D
:100EC6008800FF30890083120313880183160313F9
:100ED600811308000A128A1153270A128A118312F3
:100EE6000313061A962F0330F2008A30F1005530AC
:100EF600F000F00B7C2FF10B7C2FF20B7C2F832F55
:100F060083120313061A972F08140230F200453095
:100F1600F100A930F000F00B8E2FF10B8E2FF20BA3
:100F26008E2F952F972F081083120313861AB72F2B
:100F36000330F2008A30F1005530F000F00BA12F9B
:100F4600F10BA12FF20BA12FA82F83120313861AE0
:100F5600B72F080C0139F0000130F006F00D080833
:100F66007006FD3970068800061BE72F0330F20075
:100F76008A30F1005530F000F00BBF2FF10BBF2F78
:100F8600F20BBF2FC62F83120313061BE72F080C85
:100F9600F000700C0139F0000130F006F00DF00D94
:100FA60008087006FB3970068800061FD82F033024
:100FB600F2008A30F1005530F000F00BE02FF10B13
:100FC600E02FF20BE02FE72F83120313861B722FFD
:100FD600080CF000F00C700C0139F0000130F0063E
:100FE600F00DF00DF00D08087006F7397006880050
:0A0FF600722F83010A128A116D2F79
:04400E00E2E0FFFEEF
:00000001FF
