:060000000A128A11FC2F18
:100EE2008316031788018901831203131F10FF3031
:100EF200831603138500FF308600FF308700F03031
:100F02008800FF30890083120313880183160313BC
:100F1200811308000A128A1171270A128A11831298
:100F22000313061AA72F0330F2004930F10066308E
:100F3200F000F00B9A2FF10B9A2FF20B9A2F000070
:100F420083120313061AA82F0814A82F0810861A52
:100F5200C62F0430F200CF30F1000130F000F00B68
:100F6200B02FF10BB02FF20BB02FB72F8312031358
:100F7200861AC62F080C0139F0000130F006F00D78
:100F820008087006FD3970068800061BE92F033039
:100F9200F2004930F1006630F000F00BCE2FF10B79
:100FA200CE2FF20BCE2F000083120313061BE92F64
:100FB200061FD92F080CF000700C0139F000013027
:100FC200F006F00DF00D08087006FB397006880077
:100FD200861B902F080CF000F00C700C0139F00009
:100FE2000130F006F00DF00DF00D08087006F7392B
:0E0FF20070068800902F83010A128A118B2F3F
:04400E00E2E0FFFEEF
:00000001FF
