:1000000083177D3084007E300A128A110D200A1277
:100010008A1183010A128A11152864008001840A5A
:1000200004060319003404060E280A128A11AD25AD
:100030000A128A110A128A119B260A128A11643046
:100040000A128A1158250A128A110A128A114B259E
:100050000A128A110230F50001300A128A11F925BC
:100060000A128A1116300A128A118D250A128A1173
:100070000230F50002300A128A11F9250A128A119B
:100080000F300A128A118D250A128A110B30F500E1
:1000900001300A128A11F9250A128A1108300A124F
:1000A0008A118D250A128A110B30F50002300A12CE
:1000B0008A11F9250A128A1101300A128A118D2536
:1000C0000A128A11F5010314F50D01300A128A1182
:1000D000F9250A128A117E300A128A1135250A1270
:1000E0008A11831203130618762877289D28643016
:1000F0000A128A1158250A128A118312031306184C
:10010000822883289D2800300A128A115F260A124D
:100110008A11FF30F000831203137008FD07FD1FE2
:100120009228932897280330F0007008FD007D087E
:100130000A128A112F270A128A11831203138618B2
:10014000A228A328CD2864300A128A1158250A1241
:100150008A11831203138618AE28AF28CD280030E9
:100160000A128A115F260A128A110130F0008312E6
:1001700003137008FD077D08803A7C3E031CC128EC
:10018000C228C7280310003003180130FD007D0885
:100190000A128A112F270A128A11831203130619D1
:1001A000D228D328ED2864300A128A1158250A1261
:1001B0008A11831203130619DE28DF28ED28013087
:1001C0000A128A115F260A128A11831203137D080C
:1001D0000A128A112A260A128A1171280A128A1111
:0201E0000028F5
:100A6A00F20083120313081572080A128A117225FA
:100A7A000A128A110800F700831203130811770873
:100A8A000A128A1172250A128A11080001300A1202
:100A9A008A1140250A128A1103300A128A1158252E
:100AAA000A128A110800F3000430F400FA30F50043
:100ABA005F2D5F2D0130F502031D642D652D5E2D1E
:100ACA000130F402031D6A2D6B2D5B2D0130F302F8
:100ADA00031D702D712D592D0800F80078080A128F
:100AEA008A11D2250A128A11F80EF030F805780810
:100AFA000A128A11D2250A128A113230F900862D79
:100B0A00862D0130F902031D8B2D8C2D852D0800B1
:100B1A00F500831203130815A12D75080A128A110C
:100B2A0009270A128A110A128A1172250A128A11CF
:100B3A000130F6007608F50775080A128A110927A6
:100B4A000A128A110038031DAB2DAC2D922D080014
:100B5A0003108316031300300318013085000F3089
:100B6A00860003100030031801308700031000309C
:100B7A00031801308800031000300318013089007F
:100B8A000310831203130030031801308B008613FD
:100B9A0006138612061289100800FA00FA1FD62DCB
:100BAA00D72DDB2D831203138817DE2D831203132F
:100BBA0088137A1FE12DE22DE42D0817E52D08137D
:100BCA00FA1EE82DE92DEB2D8816EC2D88127A1ED7
:100BDA00EF2DF02DF22D0816F32D08120A128A11A4
:100BEA00EE270A128A110800F6001B2E75087F3EAE
:100BFA000A128A1140250A128A11292E7508BF3E47
:100C0A000A128A1140250A128A11292E75088F3E66
:100C1A000A128A1140250A128A11292E7508CF3E16
:100C2A000A128A1140250A128A11292E7608013AD7
:100C3A000319FB2D033A0319032E013A03190B2E4C
:100C4A00073A0319132E292E0800F100482E803086
:100C5A0086060030861B0130F200562E403086068A
:100C6A000030061B0130F200562E20308606003076
:100C7A00861A0130F200562E103086060030061A07
:100C8A000130F200562E7108003A03192C2E013A4F
:100C9A000319332E033A03193A2E013A0319412E46
:100CAA00562E7208F30071080A128A11A6270A1230
:100CBA008A110800F1006A2E4630F200752E5A3069
:100CCA00F200752E6E30F200752E7108003A031983
:100CDA00612E013A0319642E033A0319672E752E01
:100CEA002830F300922E7208F4007C2E7C2E0130FC
:100CFA00F402031D812E822E7B2E83120313891484
:100D0A007208F500892E892E0130F502031D8E2EF8
:100D1A008F2E882E8312031389100130F302730871
:100D2A00FF3A031D992E9A2E782E08008312031378
:100D3A00081132300A128A1158250A128A118312AE
:100D4A00031308168816081388130A128A11EE2745
:100D5A000A128A1106300A128A1158250A128A11B1
:100D6A000A128A11EE270A128A119630F100BE2E53
:100D7A00BE2E0130F102031DC32EC42EBD2E0A124F
:100D8A008A11EE270A128A1106300A128A11582588
:100D9A000A128A118312031308120A128A11EE2701
:100DAA000A128A116430F200DB2EDB2E0130F202C5
:100DBA00031DE02EE12EDA2E28300A128A1172253E
:100DCA000A128A1108300A128A1172250A128A1125
:100DDA0000300A128A1172250A128A110C300A127C
:100DEA008A1172250A128A1106300A128A1172258C
:100DFA000A128A110800FE00FE1F082F83137E18AC
:100E0A008317000808000408FE0007308A007E08DD
:100E1A00820700344C3434343A344F34463446343E
:100E2A0000344C3433343A344F3446344634003484
:100E3A004C3432343A344F344634463400344C3429
:100E4A0031343A344F344634463400344F344E3415
:100E5A0020340034F100F5010314F50D01300A12B3
:100E6A008A11F9250A128A1120300A128A113525A7
:100E7A000A128A11F5010314F50D02300A128A11B9
:100E8A00F9250A128A1120300A128A1135250A1206
:100E9A008A110A30F50001300A128A11F9250A125C
:100EAA008A1120300A128A1135250A128A110A304B
:100EBA00F50002300A128A11F9250A128A11203025
:100ECA000A128A1135250A128A11912FF501031483
:100EDA00F50D01300A128A11F9250A128A119F2F7B
:100EEA00F5010314F50D02300A128A11F9250A12C6
:100EFA008A119F2F0A30F50001300A128A11F9254A
:100F0A000A128A119F2F0A30F50002300A128A113A
:100F1A00F9250A128A119F2F7108003A03196B2FBB
:100F2A00013A0319752F033A03197F2F013A03195E
:100F3A00882F9F2F7E300A128A1135250A128A11AC
:100F4A000800F400CC2F0530F50001300A128A118E
:100F5A00F9250A128A11DA2F0530F50002300A1231
:100F6A008A11F9250A128A11DA2F0E30F50001309A
:100F7A000A128A11F9250A128A11DA2F0E30F5009F
:100F8A0002300A128A11F9250A128A11DA2F740814
:100F9A00003A0319A82F013A0319B12F033A03198A
:100FAA00BA2F013A0319C32FDA2F7308013A031D26
:100FBA00DF2FE02FE72F1D300A128A118D250A1222
:100FCA008A11ED2F19300A128A118D250A128A11F7
:100FDA000800831203138815FB010314FB0DF62F77
:100FEA00F62F0130FB02031DFB2FFC2FF52F831276
:060FFA000313881108003A
:02400E00323F3F
:00000001FF
