:060000000A128A11122809
:10000800FE00030EF1000408F2000A08F300831250
:1000180003137F08F4000A128A111E280A128A1193
:1000280015280A128A119320FA00F90183010A128D
:100038008A117A280B1D3628643081000130F000BF
:100048007008F907FA307902031C352808080139C5
:10005800F0000130F00608087006FE3970068800C6
:10006800F9010B117408FF0073088A0072088400F4
:10007800710E8300FE0E7E0E090083160317880199
:100088008901831203131F10FF30831603138500A1
:10009800FF308600FE308700FE308800FF30890080
:1000A800811281110108F839043881008B166430F7
:1000B80083120313810008000130FA027A0A031937
:1000C8000800C730F5006828F50B67286B286C28EE
:1000D800831203130714C730F5007228F50B712833
:1000E8007528762883120313071060280A128A11CC
:1000F80041200A128A118B170A128A1160200A12EB
:100108008A111A30F8005E30F7006E30F600F60BF0
:100118008B28F70B8B28F80B8B2800008028C83415
:04400E00E2E0FFFEEF
:00000001FF
