:100000000A128A1103280310831603130030031801
:100010000130850003100030031801308600031002
:10002000003003180130870003100030031801303E
:10003000880003100030031801308900013083125A
:1000400003138806FA300A128A11E6270A128A1167
:080050001E280A128A11002883
:100FCC00F0000430F100FA30F200ED2FED2F01307B
:100FDC00F202031DF22FF32FEC2F0130F102031D4F
:100FEC00F82FF92FE92F0130F002031DFE2FFF2FF0
:040FFC00E72F0800D3
:02400E00323F3F
:00000001FF
