:0600000000308A00122806
:10000800FF00030883120313A8000408A9000A08C4
:10001800AA007E08AB000A128A11612B83177C3074
:1000280084007E300A128A111F200A128A11830165
:100038000A128A11272864008001840A0406031919
:10004800003404062028FD10FD110A128A11062426
:100058000A128A118316031387170717813099002C
:1000680090308312031398002430831603139800EA
:10007800383083120313A0000230A1000A128A113B
:1000880086240A128A11163083120313A000033043
:10009800A1000A128A1186240A128A11FE308312DC
:1000A8000313A0000230A1000A128A1186240A1242
:1000B8008A1183120313861B622863288028643000
:1000C8000A128A11D0240A128A1183120313861B7A
:1000D8006E286F28802800300A128A114D240A12CF
:1000E8008A11C63083120313A0000230A1000A123D
:1000F8008A1186240A128A1183120313061B852883
:100108008628A32864300A128A11D0240A128A1178
:1001180083120313061B91289228A32800300A1281
:100128008A114D240A128A11AA3083120313A000DF
:100138000230A1000A128A1186240A128A11831237
:100148000313861AA828A928C62864300A128A1117
:10015800D0240A128A1183120313861AB428B528E8
:10016800C62800300A128A114D240A128A118E30CC
:1001780083120313A0000230A1000A128A118624F8
:100188000A128A1183120313061ACB28CC28E928ED
:1001980064300A128A11D0240A128A1183120313B6
:1001A800061AD728D828E92800300A128A114D24BF
:1001B8000A128A11E23083120313A0000230A10050
:1001C8000A128A1186240A128A11831203137D1CCB
:1001D800EE28EF28F6287D1001300A128A114D24E6
:1001E8000A128A11831203137D1DFB28FC28032998
:1001F8007D1100300A128A114D240A128A118312C5
:100208000313FD1D08290929A329FD114B30A0005E
:100218000330A1000A128A1186240A128A11831255
:100228000313081C1829192923295D30A00003305D
:10023800A1000A128A1186240A128A112C29533025
:10024800A0000330A1000A128A1186240A128A111A
:10025800413083120313A0000330A1000A128A114F
:1002680086240A128A1183120313881C3C293D290B
:1002780047295D30A0000330A1000A128A118624A4
:100288000A128A1150295330A0000330A1000A1223
:100298008A1186240A128A11373083120313A000A8
:1002A8000330A1000A128A1186240A128A118312C5
:1002B8000313081D602961296B295D30A0000330F4
:1002C800A1000A128A1186240A128A11742953304D
:1002D800A0000330A1000A128A1186240A128A118A
:1002E8002D3083120313A0000330A1000A128A11D3
:1002F80086240A128A1183120313881D84298529EA
:100308008F295D30A0000330A1000A128A118624CB
:100318000A128A1198295330A0000330A1000A124A
:100328008A1186240A128A11113083120313A0003D
:100338000330A1000A128A1186240A128A115D2844
:060348000A128A111228BE
:10040000FE00FE1F082A83137E18831700080800C9
:100410008A000408820000344F347234613420347E
:100420006434693467346934743461342034693431
:100430006C3420346E3475346D34653472346F34FA
:100440002034643465346C3420346C346534643462
:10045000203464346134203469346E347634653445
:10046000723474346934723465340A340D340034AF
:10047000503472346F346734723461346D346D3497
:100480006134203464346934203465347334653421
:100490006D34703469346F34203463346F346D34A8
:1004A00075346E346934633461347A3469346F344A
:1004B0006E3465342034523453343234333432346D
:1004C0000A340D3400344F3470347034753472345F
:1004D000653420347034723465346D3469342034BA
:1004E0006C346F3420347A34653472346F34203491
:1004F0007034653472342034733470346534673446
:100500006E34653472346C34693420347434753428
:100510007434743469340A340D340034483461342A
:10052000693420347034723465346D347534743405
:100530006F34203469346C342034703475346C3446
:10054000733461346E3474346534203432340A3494
:100550000D340034483461346934203470347234DA
:1005600065346D34753474346F34203469346C34CC
:100570002034703475346C34733461346E347434B4
:100580006534203433340A340D3400344834613453
:10059000693420347034723465346D347534743495
:1005A0006F34203469346C342034703475346C34D6
:1005B000733461346E3474346534203434340A3422
:1005C0000D3400344834613469342034703472346A
:1005D00065346D34753474346F34203469346C345C
:1005E0002034703475346C34733461346E34743444
:1005F0006534203431340A340D34003477347734A0
:1006000077342E3473346534743474346F34723404
:1006100065347A34653472346F342E3463346F3415
:100620006D340A340D340A340D34003442347934D4
:1006300020344234653472346E346134723464343C
:100640006F342034473469346F34763461346E3417
:100650006E3469340A340D3400340A340D344C34A9
:1006600045344434203434343A34203400340A34A9
:100670000D344C3445344434203433343A3420344B
:1006800000340A340D344C3445344434203432348C
:100690003A34203400344C3445344434203431343A
:1006A0003A342034003420344F3446344634003455
:1006B0006F346B340A340D34003420344F344E34EC
:1006C00000348C1E642B652BF92B0A128A1100252D
:1006D0000A128A1183120313A7002708FC00FD1CCD
:1006E000722B732BCE2BB92B013088067D15583019
:1006F000AC000330AD000A128A11AB240A128A1131
:10070000CA2B023088067D155830AC000330AD008E
:100710000A128A11AB240A128A11CA2B04308806E5
:100720007D155830AC000330AD000A128A11AB249D
:100730000A128A11CA2B083088067D155830AC0081
:100740000330AD000A128A11AB240A128A11CA2B97
:1007500008108810081188117D155830AC0003303E
:10076000AD000A128A11AB240A128A11CA2B7D1419
:10077000CA2B7C08303A0319A82B013A0319742BB1
:10078000033A0319812B013A03198E2B073A0319F7
:100790009B2BB72B83120313FD10F92BEB2BFD14AE
:1007A0007D150C30AC000230AD000A128A11AB246A
:1007B0000A128A11633083120313AC000230AD00B9
:1007C0000A128A11AB240A128A11F92BFD157D1524
:1007D000F92B7D14F92B7C084C3A0319CF2B1F3AC7
:1007E0000319E62B3F3A0319CF2B1F3A0319E62BC7
:1007F000E92B831203132B08FE002A088A0029081C
:10080000840028088300FF0E7F0E090003100030CB
:1008100003180130850003108316031300300318FA
:1008200001308500031083120313003003180130D8
:100830008600F0308316031386000310831203131F
:100840000030031801308700C0308316031387007F
:1008500003108312031300300318013088000310C3
:10086000831603130030031801308800031083122D
:10087000031300300318013089000310831603139B
:1008800000300318013089008113831203138B1782
:100890000B17831603138C160800A00003100030FA
:1008A00003180130A100A008031D572C582C5B2C05
:1008B000FA30A1005D2C6430A10003100030031851
:1008C0000130A200632C071421088313A300692CB4
:1008D000692C0130A302031D6E2C6F2C682C0710AD
:1008E00021088313A400752C752C0130A402031D6C
:1008F0007A2C7B2C742C0130A5002508A20714301B
:100900002202031C842C852C632C08002230A300B7
:10091000912C220883130A128A11F5240A128A11D3
:10092000912C831203132108A5002008A400013094
:10093000A0070318A10A2408840025080A128A11B6
:1009400000220A128A11A200A208031DA82CA92CB9
:10095000892CAA2C08002E30AE00B62C2F08831349
:100960000A128A11EA240A128A11B62C831203137E
:100970002D08A5002C08A4000130AC070318AD0A0F
:100980002408840025080A128A1100220A128A11FA
:10099000AF00AF08031DCD2CCE2CAE2CCF2C080001
:1009A000A0000430A100FA30A200D72CD72C0130CF
:1009B000A202031DDC2CDD2CD62C0130A102031D6C
:1009C000E22CE32CD32C0130A002031DE82CE92CEF
:1009D000D12C0800B200ED2CED2C0C1EF02CF12CCB
:1009E000EC2C3208831399000800A600F82CF82C90
:1009F0000C1EFB2CFC2CF72C2608831399000800F6
:100A0000022D022D8C1E052D062D012D1A08082DF4
:020A10000800DC
:02400E00323F3F
:00000001FF
